{
  "contractName": "FlightDelay",
  "abi": [
    {
      "constant": false,
      "inputs": [
        {
          "name": "flightNO",
          "type": "string"
        },
        {
          "name": "flightDate",
          "type": "string"
        }
      ],
      "name": "joinFlight",
      "outputs": [],
      "payable": false,
      "stateMutability": "nonpayable",
      "type": "function"
    },
    {
      "constant": false,
      "inputs": [
        {
          "name": "_interval",
          "type": "uint256"
        }
      ],
      "name": "setInterval",
      "outputs": [],
      "payable": false,
      "stateMutability": "nonpayable",
      "type": "function"
    },
    {
      "constant": true,
      "inputs": [
        {
          "name": "_sfIndex",
          "type": "bytes32"
        }
      ],
      "name": "getSFCount",
      "outputs": [
        {
          "name": "",
          "type": "uint256"
        }
      ],
      "payable": false,
      "stateMutability": "view",
      "type": "function"
    },
    {
      "constant": true,
      "inputs": [
        {
          "name": "flightDate",
          "type": "string"
        },
        {
          "name": "sfIndex",
          "type": "bytes32"
        },
        {
          "name": "tokenCount",
          "type": "uint256"
        }
      ],
      "name": "joinCheck",
      "outputs": [
        {
          "name": "",
          "type": "uint256"
        }
      ],
      "payable": false,
      "stateMutability": "view",
      "type": "function"
    },
    {
      "constant": true,
      "inputs": [],
      "name": "getFlightSts",
      "outputs": [
        {
          "name": "",
          "type": "uint256"
        }
      ],
      "payable": false,
      "stateMutability": "view",
      "type": "function"
    },
    {
      "constant": true,
      "inputs": [
        {
          "name": "flightNO",
          "type": "string"
        }
      ],
      "name": "getPrice",
      "outputs": [
        {
          "name": "",
          "type": "uint256"
        }
      ],
      "payable": false,
      "stateMutability": "view",
      "type": "function"
    },
    {
      "constant": true,
      "inputs": [
        {
          "name": "_sfIndex",
          "type": "bytes32"
        }
      ],
      "name": "checkCanEndByVote",
      "outputs": [
        {
          "name": "canEnd",
          "type": "bool"
        }
      ],
      "payable": false,
      "stateMutability": "view",
      "type": "function"
    },
    {
      "constant": false,
      "inputs": [],
      "name": "emergencyStop",
      "outputs": [],
      "payable": false,
      "stateMutability": "nonpayable",
      "type": "function"
    },
    {
      "constant": true,
      "inputs": [],
      "name": "owner",
      "outputs": [
        {
          "name": "",
          "type": "address"
        }
      ],
      "payable": false,
      "stateMutability": "view",
      "type": "function"
    },
    {
      "constant": true,
      "inputs": [],
      "name": "interval",
      "outputs": [
        {
          "name": "",
          "type": "uint256"
        }
      ],
      "payable": false,
      "stateMutability": "view",
      "type": "function"
    },
    {
      "constant": true,
      "inputs": [],
      "name": "maxCount",
      "outputs": [
        {
          "name": "",
          "type": "uint256"
        }
      ],
      "payable": false,
      "stateMutability": "view",
      "type": "function"
    },
    {
      "constant": false,
      "inputs": [
        {
          "name": "count",
          "type": "uint256"
        }
      ],
      "name": "setMaxCount",
      "outputs": [],
      "payable": false,
      "stateMutability": "nonpayable",
      "type": "function"
    },
    {
      "constant": false,
      "inputs": [
        {
          "name": "flightNO",
          "type": "string"
        },
        {
          "name": "flightDate",
          "type": "string"
        },
        {
          "name": "votedSfIndex",
          "type": "bytes32"
        },
        {
          "name": "vote",
          "type": "uint8"
        }
      ],
      "name": "joinFlightByVote",
      "outputs": [],
      "payable": false,
      "stateMutability": "nonpayable",
      "type": "function"
    },
    {
      "constant": true,
      "inputs": [],
      "name": "testOK",
      "outputs": [
        {
          "name": "",
          "type": "uint256"
        }
      ],
      "payable": false,
      "stateMutability": "view",
      "type": "function"
    },
    {
      "constant": false,
      "inputs": [
        {
          "name": "newOwner",
          "type": "address"
        }
      ],
      "name": "transferOwnership",
      "outputs": [],
      "payable": false,
      "stateMutability": "nonpayable",
      "type": "function"
    },
    {
      "inputs": [
        {
          "name": "hbsAddress",
          "type": "address"
        },
        {
          "name": "tokenAddress",
          "type": "address"
        }
      ],
      "payable": false,
      "stateMutability": "nonpayable",
      "type": "constructor"
    },
    {
      "anonymous": false,
      "inputs": [
        {
          "indexed": false,
          "name": "flightNO",
          "type": "string"
        },
        {
          "indexed": false,
          "name": "flightDate",
          "type": "string"
        },
        {
          "indexed": false,
          "name": "user",
          "type": "address"
        }
      ],
      "name": "UserJoin",
      "type": "event"
    },
    {
      "anonymous": false,
      "inputs": [
        {
          "indexed": true,
          "name": "previousOwner",
          "type": "address"
        },
        {
          "indexed": true,
          "name": "newOwner",
          "type": "address"
        }
      ],
      "name": "OwnershipTransferred",
      "type": "event"
    }
  ],
  "bytecode": "0x606060405260186004556096600555341561001957600080fd5b604051604080612c198339810160405280805190602001909190805190602001909190505033336000806101000a81548173ffffffffffffffffffffffffffffffffffffffff021916908373ffffffffffffffffffffffffffffffffffffffff16021790555080600160006101000a81548173ffffffffffffffffffffffffffffffffffffffff021916908373ffffffffffffffffffffffffffffffffffffffff1602179055506000600160146101000a81548160ff0219169083151502179055505081600260006101000a81548173ffffffffffffffffffffffffffffffffffffffff021916908373ffffffffffffffffffffffffffffffffffffffff16021790555080600360006101000a81548173ffffffffffffffffffffffffffffffffffffffff021916908373ffffffffffffffffffffffffffffffffffffffff1602179055505050612aaa8061016f6000396000f3006060604052600436106100db576000357c0100000000000000000000000000000000000000000000000000000000900463ffffffff1680631b33a162146100e057806322a90082146101225780632a9e90b9146101455780632eac8f68146101805780634f0c6d7414610207578063524f3889146102305780635d1ca4fb146102a157806363a599a4146102e05780638da5cb5b146102f5578063947a36fb1461034a5780639ef2d87a14610373578063a35e617f1461039c578063af3fc208146103bf578063b325deae14610478578063f2fde38b146104a1575b600080fd5b34156100eb57600080fd5b6101206004808035906020019082018035906020019190919290803590602001908201803590602001919091929050506104da565b005b341561012d57600080fd5b610143600480803590602001909190505061056d565b005b341561015057600080fd5b61016a6004808035600019169060200190919050506105d2565b6040518082815260200191505060405180910390f35b341561018b57600080fd5b6101f1600480803590602001908201803590602001908080601f0160208091040260200160405190810160405280939291908181526020018383808284378201915050505050509190803560001916906020019091908035906020019091905050610697565b6040518082815260200191505060405180910390f35b341561021257600080fd5b61021a610a66565b6040518082815260200191505060405180910390f35b341561023b57600080fd5b61028b600480803590602001908201803590602001908080601f01602080910402602001604051908101604052809392919081815260200183838082843782019150505050505091905050610a6f565b6040518082815260200191505060405180910390f35b34156102ac57600080fd5b6102c6600480803560001916906020019091905050610a7a565b604051808215151515815260200191505060405180910390f35b34156102eb57600080fd5b6102f3610d5d565b005b341561030057600080fd5b610308610dd5565b604051808273ffffffffffffffffffffffffffffffffffffffff1673ffffffffffffffffffffffffffffffffffffffff16815260200191505060405180910390f35b341561035557600080fd5b61035d610dfa565b6040518082815260200191505060405180910390f35b341561037e57600080fd5b610386610e00565b6040518082815260200191505060405180910390f35b34156103a757600080fd5b6103bd6004808035906020019091905050610e06565b005b34156103ca57600080fd5b610476600480803590602001908201803590602001908080601f0160208091040260200160405190810160405280939291908181526020018383808284378201915050505050509190803590602001908201803590602001908080601f016020809104026020016040519081016040528093929190818152602001838380828437820191505050505050919080356000191690602001909190803560ff16906020019091905050610e6b565b005b341561048357600080fd5b61048b6116bc565b6040518082815260200191505060405180910390f35b34156104ac57600080fd5b6104d8600480803573ffffffffffffffffffffffffffffffffffffffff169060200190919050506116c2565b005b600160149054906101000a900460ff161515156104f657600080fd5b61056784848080601f01602080910402602001604051908101604052809392919081815260200183838082843782019150505050505083838080601f016020809104026020016040519081016040528093929190818152602001838380828437820191505050505050600080610e6b565b50505050565b6000809054906101000a900473ffffffffffffffffffffffffffffffffffffffff1673ffffffffffffffffffffffffffffffffffffffff163373ffffffffffffffffffffffffffffffffffffffff161415156105c857600080fd5b8060048190555050565b6000600260009054906101000a900473ffffffffffffffffffffffffffffffffffffffff1673ffffffffffffffffffffffffffffffffffffffff16632a9e90b9836000604051602001526040518263ffffffff167c0100000000000000000000000000000000000000000000000000000000028152600401808260001916600019168152602001915050602060405180830381600087803b151561067557600080fd5b6102c65a03f1151561068657600080fd5b505050604051805190509050919050565b6000806106a385611817565b15156106b25760019150610a5e565b6106be85600454611ad5565b15156106cd5760029150610a5e565b600554600260009054906101000a900473ffffffffffffffffffffffffffffffffffffffff1673ffffffffffffffffffffffffffffffffffffffff16632a9e90b9866000604051602001526040518263ffffffff167c0100000000000000000000000000000000000000000000000000000000028152600401808260001916600019168152602001915050602060405180830381600087803b151561077157600080fd5b6102c65a03f1151561078257600080fd5b505050604051805190501115151561079d5760039150610a5e565b600260009054906101000a900473ffffffffffffffffffffffffffffffffffffffff1673ffffffffffffffffffffffffffffffffffffffff1663995a3dee856000604051602001526040518263ffffffff167c0100000000000000000000000000000000000000000000000000000000028152600401808260001916600019168152602001915050602060405180830381600087803b151561083e57600080fd5b6102c65a03f1151561084f57600080fd5b5050506040518051905015156108685760049150610a5e565b600260009054906101000a900473ffffffffffffffffffffffffffffffffffffffff1673ffffffffffffffffffffffffffffffffffffffff16634adaaf1f85336000604051602001526040518363ffffffff167c01000000000000000000000000000000000000000000000000000000000281526004018083600019166000191681526020018273ffffffffffffffffffffffffffffffffffffffff1673ffffffffffffffffffffffffffffffffffffffff16815260200192505050602060405180830381600087803b151561093d57600080fd5b6102c65a03f1151561094e57600080fd5b50505060405180519050905080156109695760059150610a5e565b82600360009054906101000a900473ffffffffffffffffffffffffffffffffffffffff1673ffffffffffffffffffffffffffffffffffffffff166370a08231336000604051602001526040518263ffffffff167c0100000000000000000000000000000000000000000000000000000000028152600401808273ffffffffffffffffffffffffffffffffffffffff1673ffffffffffffffffffffffffffffffffffffffff168152602001915050602060405180830381600087803b1515610a2f57600080fd5b6102c65a03f11515610a4057600080fd5b505050604051805190501015610a595760069150610a5e565b600091505b509392505050565b6000601e905090565b6000601e9050919050565b600080600080600080600080600260009054906101000a900473ffffffffffffffffffffffffffffffffffffffff1673ffffffffffffffffffffffffffffffffffffffff1663385afd8c8a600060405161012001526040518263ffffffff167c010000000000000000000000000000000000000000000000000000000002815260040180826000191660001916815260200191505061012060405180830381600087803b1515610b2957600080fd5b6102c65a03f11515610b3a57600080fd5b50505060405180519060200180519060200180519060200180519060200180519060200180519060200180519060200180519060200180519050505050965096509650965096509650610bcc83610bbe86610bb089610ba28c8e611ca190919063ffffffff16565b611ca190919063ffffffff16565b611ca190919063ffffffff16565b611ca190919063ffffffff16565b9050600260009054906101000a900473ffffffffffffffffffffffffffffffffffffffff1673ffffffffffffffffffffffffffffffffffffffff166340c4af4c6000604051602001526040518163ffffffff167c0100000000000000000000000000000000000000000000000000000000028152600401602060405180830381600087803b1515610c5c57600080fd5b6102c65a03f11515610c6d57600080fd5b50505060405180519050610c8a8343611cbf90919063ffffffff16565b118015610d3e5750600260009054906101000a900473ffffffffffffffffffffffffffffffffffffffff1673ffffffffffffffffffffffffffffffffffffffff166348a44eb86000604051602001526040518163ffffffff167c0100000000000000000000000000000000000000000000000000000000028152600401602060405180830381600087803b1515610d2057600080fd5b6102c65a03f11515610d3157600080fd5b5050506040518051905081115b15610d4c5760019750610d51565b600097505b50505050505050919050565b600160009054906101000a900473ffffffffffffffffffffffffffffffffffffffff1673ffffffffffffffffffffffffffffffffffffffff163373ffffffffffffffffffffffffffffffffffffffff16141515610db957600080fd5b60018060146101000a81548160ff021916908315150217905550565b6000809054906101000a900473ffffffffffffffffffffffffffffffffffffffff1681565b60045481565b60055481565b6000809054906101000a900473ffffffffffffffffffffffffffffffffffffffff1673ffffffffffffffffffffffffffffffffffffffff163373ffffffffffffffffffffffffffffffffffffffff16141515610e6157600080fd5b8060058190555050565b6000806000600160149054906101000a900460ff16151515610e8c57600080fd5b610e968787611cd8565b6040518082805190602001908083835b602083101515610ecb5780518252602082019150602081019050602083039250610ea6565b6001836020036101000a03801982511681845116808217855250505050505090500191505060405180910390209250610f0387610a6f565b9150670de0b6b3a7640000820290506000610f1f878584610697565b141515610f2b57600080fd5b600360009054906101000a900473ffffffffffffffffffffffffffffffffffffffff1673ffffffffffffffffffffffffffffffffffffffff166323b872dd3330846000604051602001526040518463ffffffff167c0100000000000000000000000000000000000000000000000000000000028152600401808473ffffffffffffffffffffffffffffffffffffffff1673ffffffffffffffffffffffffffffffffffffffff1681526020018373ffffffffffffffffffffffffffffffffffffffff1673ffffffffffffffffffffffffffffffffffffffff1681526020018281526020019350505050602060405180830381600087803b151561102c57600080fd5b6102c65a03f1151561103d57600080fd5b50505060405180519050151561105257600080fd5b600260009054906101000a900473ffffffffffffffffffffffffffffffffffffffff1673ffffffffffffffffffffffffffffffffffffffff1663f0b2801a848989338a8a896040518863ffffffff167c010000000000000000000000000000000000000000000000000000000002815260040180886000191660001916815260200180602001806020018773ffffffffffffffffffffffffffffffffffffffff1673ffffffffffffffffffffffffffffffffffffffff168152602001866000191660001916815260200185600481111561112857fe5b60ff168152602001848152602001838103835289818151815260200191508051906020019080838360005b8381101561116e578082015181840152602081019050611153565b50505050905090810190601f16801561119b5780820380516001836020036101000a031916815260200191505b50838103825288818151815260200191508051906020019080838360005b838110156111d45780820151818401526020810190506111b9565b50505050905090810190601f1680156112015780820380516001836020036101000a031916815260200191505b509950505050505050505050600060405180830381600087803b151561122657600080fd5b6102c65a03f1151561123757600080fd5b505050600080191685600019161415156113fd57600260009054906101000a900473ffffffffffffffffffffffffffffffffffffffff1673ffffffffffffffffffffffffffffffffffffffff166316ff98c886866040518363ffffffff167c01000000000000000000000000000000000000000000000000000000000281526004018083600019166000191681526020018260048111156112d457fe5b60ff16815260200192505050600060405180830381600087803b15156112f957600080fd5b6102c65a03f1151561130a57600080fd5b50505061131683610a7a565b156113fc57600260009054906101000a900473ffffffffffffffffffffffffffffffffffffffff1673ffffffffffffffffffffffffffffffffffffffff1663b8dbf2b884336040518363ffffffff167c01000000000000000000000000000000000000000000000000000000000281526004018083600019166000191681526020018273ffffffffffffffffffffffffffffffffffffffff1673ffffffffffffffffffffffffffffffffffffffff16815260200192505050600060405180830381600087803b15156113e757600080fd5b6102c65a03f115156113f857600080fd5b5050505b5b43600681905550600554600260009054906101000a900473ffffffffffffffffffffffffffffffffffffffff1673ffffffffffffffffffffffffffffffffffffffff16632a9e90b9856000604051602001526040518263ffffffff167c0100000000000000000000000000000000000000000000000000000000028152600401808260001916600019168152602001915050602060405180830381600087803b15156114a857600080fd5b6102c65a03f115156114b957600080fd5b50505060405180519050141561157657600260009054906101000a900473ffffffffffffffffffffffffffffffffffffffff1673ffffffffffffffffffffffffffffffffffffffff1663a1b73fff846040518263ffffffff167c0100000000000000000000000000000000000000000000000000000000028152600401808260001916600019168152602001915050600060405180830381600087803b151561156157600080fd5b6102c65a03f1151561157257600080fd5b5050505b7fe9aa992feb3d97652f279bc0f27592cf2381843b8e6815dfa897b6ba1c66edd78787336040518080602001806020018473ffffffffffffffffffffffffffffffffffffffff1673ffffffffffffffffffffffffffffffffffffffff168152602001838103835286818151815260200191508051906020019080838360005b838110156116105780820151818401526020810190506115f5565b50505050905090810190601f16801561163d5780820380516001836020036101000a031916815260200191505b50838103825285818151815260200191508051906020019080838360005b8381101561167657808201518184015260208101905061165b565b50505050905090810190601f1680156116a35780820380516001836020036101000a031916815260200191505b509550505050505060405180910390a150505050505050565b60065481565b6000809054906101000a900473ffffffffffffffffffffffffffffffffffffffff1673ffffffffffffffffffffffffffffffffffffffff163373ffffffffffffffffffffffffffffffffffffffff1614151561171d57600080fd5b600073ffffffffffffffffffffffffffffffffffffffff168173ffffffffffffffffffffffffffffffffffffffff161415151561175957600080fd5b8073ffffffffffffffffffffffffffffffffffffffff166000809054906101000a900473ffffffffffffffffffffffffffffffffffffffff1673ffffffffffffffffffffffffffffffffffffffff167f8be0079c531659141344cd1fd0a4f28419497f9722a3daafe3b4186f6b6457e060405160405180910390a3806000806101000a81548173ffffffffffffffffffffffffffffffffffffffff021916908373ffffffffffffffffffffffffffffffffffffffff16021790555050565b6000611821612a10565b611829612a10565b611831612a10565b611839612a10565b6000806000806118488a611d0b565b975061189c61188b6040805190810160405280600181526020017f2d00000000000000000000000000000000000000000000000000000000000000815250611d0b565b888a611d399092919063ffffffff16565b506118ef6118de6040805190810160405280600181526020017f2d00000000000000000000000000000000000000000000000000000000000000815250611d0b565b878a611d399092919063ffffffff16565b506119406119316040805190810160405280600181526020017f3000000000000000000000000000000000000000000000000000000000000000815250611d0b565b87611dd790919063ffffffff16565b506119916119826040805190810160405280600181526020017f3000000000000000000000000000000000000000000000000000000000000000815250611d0b565b89611dd790919063ffffffff16565b94506119a461199f88611e61565b611ebf565b93506107e28410156119b95760009850611ac8565b6119ca6119c587611e61565b611ebf565b9250600c8311806119db5750600083145b156119e95760009850611ac8565b6119f38484611ed3565b9150611a06611a0186611e61565b611ebf565b905081811180611a165750600081145b15611a245760009850611ac8565b6000611a49611a3a611a3587611f5d565b611d0b565b896120af90919063ffffffff16565b141515611a595760009850611ac8565b6000611a7e611a6f611a6a86611f5d565b611d0b565b886120af90919063ffffffff16565b141515611a8e5760009850611ac8565b6000611ab3611aa4611a9f84611f5d565b611d0b565b876120af90919063ffffffff16565b141515611ac35760009850611ac8565b600198505b5050505050505050919050565b6000611adf612a10565b611ae7612a10565b611aef612a10565b6000611afa87611d0b565b9350611b4e611b3d6040805190810160405280600181526020017f2d00000000000000000000000000000000000000000000000000000000000000815250611d0b565b8486611d399092919063ffffffff16565b50611ba1611b906040805190810160405280600181526020017f2d00000000000000000000000000000000000000000000000000000000000000815250611d0b565b8386611d399092919063ffffffff16565b50611c67611bae84611e61565b611bb784611e61565b611bc087611e61565b6040805190810160405280600281526020017f30300000000000000000000000000000000000000000000000000000000000008152506040805190810160405280600281526020017f30300000000000000000000000000000000000000000000000000000000000008152506040805190810160405280600281526020017f3030000000000000000000000000000000000000000000000000000000000000815250612169565b90504281111515611c7b5760009450611c97565b610e1086024282031015611c925760009450611c97565b600194505b5050505092915050565b6000808284019050838110151515611cb557fe5b8091505092915050565b6000828211151515611ccd57fe5b818303905092915050565b611ce0612a2a565b611d03611cec83611d0b565b611cf585611d0b565b6121d690919063ffffffff16565b905092915050565b611d13612a10565b600060208301905060408051908101604052808451815260200182815250915050919050565b611d41612a10565b6000611d5f8560000151866020015186600001518760200151612254565b90508460200151836020018181525050846020015181038360000181815250508460000151856020015101811415611da1576000856000018181525050611dcc565b8360000151836000015101856000018181510391508181525050836000015181018560200181815250505b829150509392505050565b611ddf612a10565b6000826000015184600001511015611df957839150611e5a565b6001905082602001518460200151141515611e27578251602085015160208501518281208383201493505050505b8015611e5657826000015184600001818151039150818152505082600001518460200181815101915081815250505b8391505b5092915050565b611e69612a2a565b611e71612a2a565b60008360000151604051805910611e855750595b9080825280601f01601f19166020018201604052509150602082019050611eb5818560200151866000015161233a565b8192505050919050565b6000611ecc826000612385565b9050919050565b60006002821415611efe57611ee78361267f565b15611ef557601d9050611f57565b601c9050611f57565b6001821480611f0d5750600382145b80611f185750600582145b80611f235750600782145b80611f2e5750600882145b80611f395750600a82145b80611f445750600c82145b15611f5257601f9050611f57565b601e90505b92915050565b611f65612a2a565b600080611f70612a3e565b600080861415611fb7576040805190810160405280600181526020017f300000000000000000000000000000000000000000000000000000000000000081525094506120a6565b8593505b600084141515611fe1578280600101935050600a84811515611fd957fe5b049350611fbb565b82604051805910611fef5750595b9080825280601f01601f191660200182016040525091506001830390505b6000861415156120a257600a8681151561202357fe5b066030017f01000000000000000000000000000000000000000000000000000000000000000282828060019003935081518110151561205e57fe5b9060200101907effffffffffffffffffffffffffffffffffffffffffffffffffffffffffffff1916908160001a905350600a8681151561209a57fe5b04955061200d565b8194505b50505050919050565b60008060008060008060008060008a6000015197508a600001518a6000015110156120dc57896000015197505b8a60200151965089602001519550600094505b8785101561214d578651935085519250828414151561213657600185896020030160080260020a031991508183168285160390506000811415156121355780985061215b565b5b6020870196506020860195506020850194506120ef565b89600001518b600001510398505b505050505050505092915050565b600080600080600080600061217d8d611ebf565b95506121888c611ebf565b94506121938b611ebf565b935061219e8a611ebf565b92506121a989611ebf565b91506121b488611ebf565b90506121c48686868686866126e8565b96505050505050509695505050505050565b6121de612a2a565b6121e6612a2a565b600083600001518560000151016040518059106122005750595b9080825280601f01601f19166020018201604052509150602082019050612230818660200151876000015161233a565b612249856000015182018560200151866000015161233a565b819250505092915050565b60008060008060008060008060008b97508c8b1115156123245760208b1115156122de5760018b60200360080260020a03196001029550858a511694508a8d8d010393508588511692505b846000191683600019161415156122d65783881015156122c3578c8c01985061232a565b878060010198505085885116925061229f565b87985061232a565b8a8a209150600096505b8a8d0387111515612323578a882090508060001916826000191614156123105787985061232a565b60018801975086806001019750506122e8565b5b8c8c0198505b5050505050505050949350505050565b60005b602082101515612362578251845260208401935060208301925060208203915061233d565b6001826020036101000a0390508019835116818551168181178652505050505050565b600061238f612a3e565b60008060008693506000925060009150600090505b83518110156126605760307f01000000000000000000000000000000000000000000000000000000000000000284828151811015156123df57fe5b9060200101517f010000000000000000000000000000000000000000000000000000000000000090047f0100000000000000000000000000000000000000000000000000000000000000027effffffffffffffffffffffffffffffffffffffffffffffffffffffffffffff1916101580156124f7575060397f010000000000000000000000000000000000000000000000000000000000000002848281518110151561248757fe5b9060200101517f010000000000000000000000000000000000000000000000000000000000000090047f0100000000000000000000000000000000000000000000000000000000000000027effffffffffffffffffffffffffffffffffffffffffffffffffffffffffffff191611155b156125a857811561251a57600086141561251057612660565b8580600190039650505b600a830292506030848281518110151561253057fe5b9060200101517f010000000000000000000000000000000000000000000000000000000000000090047f0100000000000000000000000000000000000000000000000000000000000000027f010000000000000000000000000000000000000000000000000000000000000090040383019250612653565b602e7f01000000000000000000000000000000000000000000000000000000000000000284828151811015156125da57fe5b9060200101517f010000000000000000000000000000000000000000000000000000000000000090047f0100000000000000000000000000000000000000000000000000000000000000027effffffffffffffffffffffffffffffffffffffffffffffffffffffffffffff1916141561265257600191505b5b80806001019150506123a4565b60008611156126725785600a0a830292505b8294505050505092915050565b60008060048381151561268e57fe5b0614151561269f57600090506126e3565b60006064838115156126ad57fe5b061415156126be57600190506126e3565b6000610190838115156126cd57fe5b061415156126de57600090506126e3565b600190505b919050565b6000806126f3612a52565b6107b291505b8861ffff168261ffff16101561273c576127128261298f565b15612725576301e285008301925061272f565b6301e13380830192505b81806001019250506126f9565b601f816000600c8110151561274d57fe5b602002019060ff16908160ff16815250506127678961298f565b1561279357601d816001600c8110151561277d57fe5b602002019060ff16908160ff16815250506127b6565b601c816001600c811015156127a457fe5b602002019060ff16908160ff16815250505b601f816002600c811015156127c757fe5b602002019060ff16908160ff1681525050601e816003600c811015156127e957fe5b602002019060ff16908160ff1681525050601f816004600c8110151561280b57fe5b602002019060ff16908160ff1681525050601e816005600c8110151561282d57fe5b602002019060ff16908160ff1681525050601f816006600c8110151561284f57fe5b602002019060ff16908160ff1681525050601f816007600c8110151561287157fe5b602002019060ff16908160ff1681525050601e816008600c8110151561289357fe5b602002019060ff16908160ff1681525050601f816009600c811015156128b557fe5b602002019060ff16908160ff1681525050601e81600a600c811015156128d757fe5b602002019060ff16908160ff1681525050601f81600b600c811015156128f957fe5b602002019060ff16908160ff1681525050600191505b8760ff168261ffff16101561295157806001830361ffff16600c8110151561293357fe5b602002015160ff16620151800283019250818060010192505061290f565b6001870360ff166201518002830192508560ff16610e1002830192508460ff16603c02830192508360ff168301925082925050509695505050505050565b60008060048361ffff168115156129a257fe5b0661ffff161415156129b75760009050612a0b565b600060648361ffff168115156129c957fe5b0661ffff161415156129de5760019050612a0b565b60006101908361ffff168115156129f157fe5b0661ffff16141515612a065760009050612a0b565b600190505b919050565b604080519081016040528060008152602001600081525090565b602060405190810160405280600081525090565b602060405190810160405280600081525090565b61018060405190810160405280600c905b600060ff16815260200190600190039081612a6357905050905600a165627a7a723058203912a2d7c6fcffc65f5f84006b359687f900c2caa3e5e04d5d447fd97bd2d5e10029",
  "source": "pragma solidity ^0.4.18;\nimport '../node_modules/zeppelin-solidity/contracts/ownership/Ownable.sol';\nimport '../node_modules/zeppelin-solidity/contracts/math/SafeMath.sol';\nimport \"../installed_contracts/solidity-stringutils/strings.sol\";\nimport './common/Stoppable.sol';\nimport './common/HbStorage.sol';\nimport './common/KnotToken.sol';\nimport './common/Utility.sol';\n\n/** @title group smart contract. */\ncontract FlightDelay is Ownable, Stoppable {\n    using strings for *; \n    using SafeMath for uint256;\n    HbStorage hbs;\n    KnotToken token;\n    uint public interval = 24;//24\n    uint public maxCount = 150;//\n    \n    event UserJoin(string flightNO, string flightDate, address user);\n\n    uint public testOK;\n\n    function FlightDelay(address hbsAddress, address tokenAddress) public Stoppable(msg.sender){\n        hbs = HbStorage(hbsAddress);\n        token = KnotToken(tokenAddress);\n    }\n    function setInterval(uint _interval) external onlyOwner {\n        interval = _interval;\n    }\n    function setMaxCount(uint count) external onlyOwner {\n        maxCount = count;\n    }\n\n\n\n    /** @dev \n      * @param flightNO \n      */\n    function getPrice(string flightNO) public view returns (uint) {\n        //30\n        return 30;\n    }\n    /** @dev \n      * \n      */  \n    function getFlightSts() public view returns (uint) {\n        //30\n        return 30;\n    }       \n    /** @dev \n      * @param flightNO \n      * @param price \n      */\n    // function getQualification(string flightNO, uint price) public {\n    //     require(!flightNO.toSlice().empty());\n    //     require(price > 0);\n    //     require(token.balanceOf(msg.sender) >= price);\n\n    //     hbs.setCanBuy(msg.sender, flightNO);\n    //     if (!token.transferFrom(msg.sender, this, price)) {\n    //         hbs.setCanBuy(msg.sender, \"\");\n    //     }\n    // }\n    /** @dev \n      * @param _sfIndex +\n      */\n    function getSFCount(bytes32 _sfIndex) public view returns (uint) {\n        return hbs.getSFCount(_sfIndex);\n    }\n    /** @dev \n      * @param flightNO \n      */\n    // function hasQualification(string flightNO) public view returns (bool) {\n    //     require(!flightNO.toSlice().empty());\n    //     return hbs.canBuy(msg.sender, flightNO);\n    // }\n    // /** @dev \n    //   */\n    // function getCurrentVote() public view returns (bytes32) {\n    //     bytes32 currentVote = hbs.currentVote();\n    //     return currentVote;\n    // }\n\n\n    /** @dev  \n      * @param flightNO \n      * @param flightDate :yyyy-mm-dd\n      */\n    function joinFlight(string flightNO, string flightDate) external stopInEmergency {\n        joinFlightByVote(flightNO, flightDate, bytes32(\"\"), HbStorage.DelayStatus.no);\n    }\n    function joinCheck(string flightDate, bytes32 sfIndex, uint tokenCount) public view returns(uint) {\n        if (!Utility.checkDateFomat(flightDate)) {\n            return 1;\n        }\n        if(!Utility.checkDate(flightDate, interval)) {\n            return 2;\n        }\n        if(!(hbs.getSFCount(sfIndex) <= maxCount)){\n            return 3;\n        }\n        if(!hbs.isOpening(sfIndex)) {\n            return 4;\n        }\n        bool isMemberInSF = hbs.isMemberInSF(sfIndex, msg.sender);\n        if(isMemberInSF){\n            return 5;\n        }\n        if(token.balanceOf(msg.sender) < tokenCount){\n            return 6;\n        }\n        return 0;\n    }\n    /** @dev  \n      * @param flightNO \n      * @param flightDate :yyyy-mm-dd\n      */  \n    function joinFlightByVote(string flightNO, string flightDate, bytes32 votedSfIndex, HbStorage.DelayStatus vote) public stopInEmergency {\n        // require(Utility.checkDateFomat(flightDate));\n        // require(Utility.checkDate(flightDate, interval));\n        bytes32 sfIndex = keccak256(Utility.strConcat(flightNO, flightDate));\n        // require(hbs.getSFCount(sfIndex) <= maxCount);\n        \n        // require(hbs.isOpening(sfIndex));\n        // bool isMemberNotInSF = !hbs.isMemberInSF(sfIndex, msg.sender);\n        // require(isMemberNotInSF);\n        uint price = getPrice(flightNO);\n        uint tokenCount = price * 1 ether;\n        require(joinCheck(flightDate, sfIndex, tokenCount) == 0);\n        // require(token.balanceOf(msg.sender) >= tokenCount);\n\n        require(token.transferFrom(msg.sender, this, tokenCount));\n\n        hbs.addMemberToSF(sfIndex, flightNO, flightDate, msg.sender, votedSfIndex, vote, price);\n        if (votedSfIndex != bytes32(\"\")) {\n            hbs.updateVote(votedSfIndex, vote);\n            if (checkCanEndByVote(sfIndex)) {\n                hbs.endVote(sfIndex, msg.sender);\n            }\n        }\n        testOK = block.number;\n\n        if (hbs.getSFCount(sfIndex) == maxCount) {\n            hbs.setClose(sfIndex);\n        }\n        UserJoin(flightNO, flightDate, msg.sender);\n        \n    }  \n    /** @dev  \n      * @param _sfIndex \n      */ \n    function checkCanEndByVote(bytes32 _sfIndex) public view  returns(bool canEnd){\n        var (delay1Counts, delay2Counts, delay3Counts, cancelCounts,noCounts,startNum,,) = hbs.voteInfos(_sfIndex);\n        uint totalCounts = delay1Counts.add(delay2Counts).add(delay3Counts).add(cancelCounts).add(noCounts);\n        if (block.number.sub(startNum) > hbs.voteEndInterval() && totalCounts > hbs.voteEndThreshold()) {\n            return true;\n        } else {\n            return false;\n        }\n    } \n    // function checkData(string flightNO, string flightDate) public returns (bool, bool, bool, bool, bool, bool) {\n    //     bytes32 sfIndex = keccak256(Utility.strConcat(flightNO, flightDate));\n    //     bool isMemberInSF = !hbs.isMemberInSF(sfIndex, msg.sender);\n    //     uint tokenCount = getPrice(flightNO) * 1 ether;\n    //     return (Utility.checkDateFomat(flightDate), Utility.checkDate(flightDate, interval), hbs.getSFCount(sfIndex) <= maxCount, \n    //     hbs.isOpening(sfIndex), isMemberInSF, token.balanceOf(msg.sender) >= tokenCount);\n\n    // }\n\n}",
  "sourcePath": "/Users/Macx/huangyihong/huibaoSC/contracts/FlightDelay.sol",
  "compiler": {
    "name": "solc",
    "version": "0.4.18+commit.9cf6e910.Emscripten.clang"
  },
  "schemaVersion": "1.0.1",
  "updatedAt": "2018-04-09T05:51:12.730Z"
}