{
  "contractName": "Stoppable",
  "abi": [
    {
      "constant": false,
      "inputs": [],
      "name": "emergencyStop",
      "outputs": [],
      "payable": false,
      "stateMutability": "nonpayable",
      "type": "function"
    },
    {
      "constant": true,
      "inputs": [],
      "name": "stopped",
      "outputs": [
        {
          "name": "",
          "type": "bool"
        }
      ],
      "payable": false,
      "stateMutability": "view",
      "type": "function"
    },
    {
      "constant": false,
      "inputs": [],
      "name": "start",
      "outputs": [],
      "payable": false,
      "stateMutability": "nonpayable",
      "type": "function"
    },
    {
      "inputs": [
        {
          "name": "_curator",
          "type": "address"
        }
      ],
      "payable": false,
      "stateMutability": "nonpayable",
      "type": "constructor"
    }
  ],
  "bytecode": "0x6060604052341561000f57600080fd5b60405160208061027683398101604052808051906020019091905050806000806101000a81548173ffffffffffffffffffffffffffffffffffffffff021916908373ffffffffffffffffffffffffffffffffffffffff16021790555060008060146101000a81548160ff021916908315150217905550506101e1806100956000396000f300606060405260043610610057576000357c0100000000000000000000000000000000000000000000000000000000900463ffffffff16806363a599a41461005c57806375f12b2114610071578063be9a65551461009e575b600080fd5b341561006757600080fd5b61006f6100b3565b005b341561007c57600080fd5b61008461012b565b604051808215151515815260200191505060405180910390f35b34156100a957600080fd5b6100b161013e565b005b6000809054906101000a900473ffffffffffffffffffffffffffffffffffffffff1673ffffffffffffffffffffffffffffffffffffffff163373ffffffffffffffffffffffffffffffffffffffff1614151561010e57600080fd5b6001600060146101000a81548160ff021916908315150217905550565b600060149054906101000a900460ff1681565b6000809054906101000a900473ffffffffffffffffffffffffffffffffffffffff1673ffffffffffffffffffffffffffffffffffffffff163373ffffffffffffffffffffffffffffffffffffffff1614151561019957600080fd5b60008060146101000a81548160ff0219169083151502179055505600a165627a7a72305820acdc1606c145b9123c9b18fea071a397898ebe3363878b4368e7c30584334c510029",
  "source": "pragma solidity ^0.4.18;\n\ncontract Stoppable {\n    address curator;\n    bool public stopped;\n\n    modifier stopInEmergency { \n        require(!stopped);\n        _;\n    }\n    modifier onlyInEmergency { \n        require(stopped);\n        _;\n    }\n    function Stoppable(address _curator) public {\n        curator = _curator;\n        stopped = false;\n    }\n  \n    function emergencyStop() external {\n        require(msg.sender == curator);\n        stopped = true;\n    }\n    function start() external {\n        require(msg.sender == curator);\n        stopped = false;\n    }\n}",
  "sourcePath": "/Users/Macx/huangyihong/huibaoSC/contracts/common/Stoppable.sol",
  "compiler": {
    "name": "solc",
    "version": "0.4.18+commit.9cf6e910.Emscripten.clang"
  },
  "schemaVersion": "1.0.1",
  "updatedAt": "2018-04-19T07:12:37.642Z"
}