{
  "contractName": "WccStorage",
  "abi": [
    {
      "constant": false,
      "inputs": [
        {
          "name": "_gameIndex",
          "type": "bytes32"
        },
        {
          "name": "_scoreIndex",
          "type": "bytes32"
        },
        {
          "name": "user",
          "type": "address"
        }
      ],
      "name": "setUserScorePaid",
      "outputs": [],
      "payable": false,
      "stateMutability": "nonpayable",
      "type": "function"
    },
    {
      "constant": true,
      "inputs": [
        {
          "name": "",
          "type": "bytes32"
        },
        {
          "name": "",
          "type": "address"
        },
        {
          "name": "",
          "type": "uint256"
        }
      ],
      "name": "joinedGamesScoreIndexes",
      "outputs": [
        {
          "name": "",
          "type": "bytes32"
        }
      ],
      "payable": false,
      "stateMutability": "view",
      "type": "function"
    },
    {
      "constant": false,
      "inputs": [
        {
          "name": "_index",
          "type": "bytes32"
        },
        {
          "name": "_p1",
          "type": "string"
        },
        {
          "name": "_p2",
          "type": "string"
        }
      ],
      "name": "setPlayer",
      "outputs": [],
      "payable": false,
      "stateMutability": "nonpayable",
      "type": "function"
    },
    {
      "constant": true,
      "inputs": [],
      "name": "gamesUpdated",
      "outputs": [
        {
          "name": "",
          "type": "uint256"
        }
      ],
      "payable": false,
      "stateMutability": "view",
      "type": "function"
    },
    {
      "constant": true,
      "inputs": [
        {
          "name": "_gameIndex",
          "type": "bytes32"
        },
        {
          "name": "_scoreIndex",
          "type": "bytes32"
        }
      ],
      "name": "getGameScoreTotalInfo",
      "outputs": [
        {
          "name": "score",
          "type": "string"
        },
        {
          "name": "totalValue",
          "type": "uint256"
        },
        {
          "name": "totalBets",
          "type": "uint256"
        },
        {
          "name": "isValued",
          "type": "bool"
        }
      ],
      "payable": false,
      "stateMutability": "view",
      "type": "function"
    },
    {
      "constant": true,
      "inputs": [
        {
          "name": "",
          "type": "address"
        }
      ],
      "name": "admins",
      "outputs": [
        {
          "name": "",
          "type": "bool"
        }
      ],
      "payable": false,
      "stateMutability": "view",
      "type": "function"
    },
    {
      "constant": false,
      "inputs": [
        {
          "name": "_p1",
          "type": "string"
        },
        {
          "name": "_p2",
          "type": "string"
        },
        {
          "name": "_gameType",
          "type": "uint8"
        },
        {
          "name": "_time",
          "type": "uint256"
        }
      ],
      "name": "setGame",
      "outputs": [],
      "payable": false,
      "stateMutability": "nonpayable",
      "type": "function"
    },
    {
      "constant": false,
      "inputs": [
        {
          "name": "_gameIndex",
          "type": "bytes32"
        },
        {
          "name": "_status",
          "type": "uint8"
        }
      ],
      "name": "setGameStatus",
      "outputs": [],
      "payable": false,
      "stateMutability": "nonpayable",
      "type": "function"
    },
    {
      "constant": true,
      "inputs": [
        {
          "name": "",
          "type": "bytes32"
        },
        {
          "name": "",
          "type": "address"
        },
        {
          "name": "",
          "type": "bytes32"
        }
      ],
      "name": "joinedGamesScoreInfo",
      "outputs": [
        {
          "name": "score",
          "type": "string"
        },
        {
          "name": "value",
          "type": "uint256"
        },
        {
          "name": "paid",
          "type": "bool"
        },
        {
          "name": "isValued",
          "type": "bool"
        }
      ],
      "payable": false,
      "stateMutability": "view",
      "type": "function"
    },
    {
      "constant": true,
      "inputs": [
        {
          "name": "_gameIndex",
          "type": "bytes32"
        },
        {
          "name": "_scoreIndex",
          "type": "bytes32"
        }
      ],
      "name": "getUserJoinedGameScoreInfo",
      "outputs": [
        {
          "name": "score",
          "type": "string"
        },
        {
          "name": "value",
          "type": "uint256"
        },
        {
          "name": "paid",
          "type": "bool"
        },
        {
          "name": "isValued",
          "type": "bool"
        }
      ],
      "payable": false,
      "stateMutability": "view",
      "type": "function"
    },
    {
      "constant": true,
      "inputs": [
        {
          "name": "_gameIndex",
          "type": "bytes32"
        }
      ],
      "name": "getGameScoreIndexes",
      "outputs": [
        {
          "name": "",
          "type": "bytes32[]"
        }
      ],
      "payable": false,
      "stateMutability": "view",
      "type": "function"
    },
    {
      "constant": false,
      "inputs": [
        {
          "name": "_index",
          "type": "bytes32"
        },
        {
          "name": "_p1",
          "type": "string"
        },
        {
          "name": "_p2",
          "type": "string"
        },
        {
          "name": "_gameType",
          "type": "uint8"
        },
        {
          "name": "_time",
          "type": "uint256"
        }
      ],
      "name": "setGame",
      "outputs": [],
      "payable": false,
      "stateMutability": "nonpayable",
      "type": "function"
    },
    {
      "constant": false,
      "inputs": [
        {
          "name": "admin",
          "type": "address"
        }
      ],
      "name": "setAdmin",
      "outputs": [],
      "payable": false,
      "stateMutability": "nonpayable",
      "type": "function"
    },
    {
      "constant": true,
      "inputs": [
        {
          "name": "_gameIndex",
          "type": "bytes32"
        }
      ],
      "name": "isJoinedGame",
      "outputs": [
        {
          "name": "",
          "type": "bool"
        }
      ],
      "payable": false,
      "stateMutability": "view",
      "type": "function"
    },
    {
      "constant": true,
      "inputs": [],
      "name": "owner",
      "outputs": [
        {
          "name": "",
          "type": "address"
        }
      ],
      "payable": false,
      "stateMutability": "view",
      "type": "function"
    },
    {
      "constant": true,
      "inputs": [
        {
          "name": "",
          "type": "bytes32"
        }
      ],
      "name": "playerNames",
      "outputs": [
        {
          "name": "p1",
          "type": "string"
        },
        {
          "name": "p2",
          "type": "string"
        },
        {
          "name": "isValued",
          "type": "bool"
        }
      ],
      "payable": false,
      "stateMutability": "view",
      "type": "function"
    },
    {
      "constant": true,
      "inputs": [
        {
          "name": "",
          "type": "uint256"
        }
      ],
      "name": "gameIndexes",
      "outputs": [
        {
          "name": "",
          "type": "bytes32"
        }
      ],
      "payable": false,
      "stateMutability": "view",
      "type": "function"
    },
    {
      "constant": true,
      "inputs": [
        {
          "name": "_gameIndex",
          "type": "bytes32"
        }
      ],
      "name": "getGameInfo",
      "outputs": [
        {
          "name": "p1",
          "type": "string"
        },
        {
          "name": "p2",
          "type": "string"
        },
        {
          "name": "time",
          "type": "uint256"
        },
        {
          "name": "gameType",
          "type": "uint8"
        },
        {
          "name": "status",
          "type": "uint8"
        },
        {
          "name": "totalValue",
          "type": "uint256"
        },
        {
          "name": "totalBets",
          "type": "uint256"
        },
        {
          "name": "isValued",
          "type": "bool"
        }
      ],
      "payable": false,
      "stateMutability": "view",
      "type": "function"
    },
    {
      "constant": false,
      "inputs": [],
      "name": "gamesUpdate",
      "outputs": [],
      "payable": false,
      "stateMutability": "nonpayable",
      "type": "function"
    },
    {
      "constant": true,
      "inputs": [
        {
          "name": "",
          "type": "bytes32"
        },
        {
          "name": "",
          "type": "address"
        }
      ],
      "name": "joinedGames",
      "outputs": [
        {
          "name": "",
          "type": "bool"
        }
      ],
      "payable": false,
      "stateMutability": "view",
      "type": "function"
    },
    {
      "constant": true,
      "inputs": [],
      "name": "getUserJoinedGameIndexes",
      "outputs": [
        {
          "name": "",
          "type": "bytes32[]"
        }
      ],
      "payable": false,
      "stateMutability": "view",
      "type": "function"
    },
    {
      "constant": false,
      "inputs": [
        {
          "name": "user",
          "type": "address"
        },
        {
          "name": "value",
          "type": "uint256"
        },
        {
          "name": "gameIndex",
          "type": "bytes32"
        },
        {
          "name": "score",
          "type": "string"
        },
        {
          "name": "scoreIndex",
          "type": "bytes32"
        }
      ],
      "name": "userJoin",
      "outputs": [],
      "payable": false,
      "stateMutability": "nonpayable",
      "type": "function"
    },
    {
      "constant": true,
      "inputs": [
        {
          "name": "_gameIndex",
          "type": "bytes32"
        }
      ],
      "name": "getUserJoinedGameScoreIndexes",
      "outputs": [
        {
          "name": "",
          "type": "bytes32[]"
        }
      ],
      "payable": false,
      "stateMutability": "view",
      "type": "function"
    },
    {
      "constant": true,
      "inputs": [],
      "name": "getAllGameIndexes",
      "outputs": [
        {
          "name": "",
          "type": "bytes32[]"
        }
      ],
      "payable": false,
      "stateMutability": "view",
      "type": "function"
    },
    {
      "constant": false,
      "inputs": [
        {
          "name": "_gameIndex",
          "type": "bytes32"
        }
      ],
      "name": "removeGame",
      "outputs": [],
      "payable": false,
      "stateMutability": "nonpayable",
      "type": "function"
    },
    {
      "constant": false,
      "inputs": [
        {
          "name": "newOwner",
          "type": "address"
        }
      ],
      "name": "transferOwnership",
      "outputs": [],
      "payable": false,
      "stateMutability": "nonpayable",
      "type": "function"
    },
    {
      "constant": true,
      "inputs": [
        {
          "name": "",
          "type": "bytes32"
        }
      ],
      "name": "games",
      "outputs": [
        {
          "name": "p1",
          "type": "string"
        },
        {
          "name": "p2",
          "type": "string"
        },
        {
          "name": "time",
          "type": "uint256"
        },
        {
          "name": "gameType",
          "type": "uint8"
        },
        {
          "name": "status",
          "type": "uint8"
        },
        {
          "name": "totalValue",
          "type": "uint256"
        },
        {
          "name": "totalBets",
          "type": "uint256"
        },
        {
          "name": "isValued",
          "type": "bool"
        },
        {
          "name": "i",
          "type": "uint256"
        }
      ],
      "payable": false,
      "stateMutability": "view",
      "type": "function"
    },
    {
      "constant": true,
      "inputs": [
        {
          "name": "",
          "type": "bytes32"
        },
        {
          "name": "",
          "type": "bytes32"
        }
      ],
      "name": "gameScoreTotalInfos",
      "outputs": [
        {
          "name": "score",
          "type": "string"
        },
        {
          "name": "totalValue",
          "type": "uint256"
        },
        {
          "name": "totalBets",
          "type": "uint256"
        },
        {
          "name": "isValued",
          "type": "bool"
        }
      ],
      "payable": false,
      "stateMutability": "view",
      "type": "function"
    },
    {
      "anonymous": false,
      "inputs": [
        {
          "indexed": true,
          "name": "previousOwner",
          "type": "address"
        },
        {
          "indexed": true,
          "name": "newOwner",
          "type": "address"
        }
      ],
      "name": "OwnershipTransferred",
      "type": "event"
    }
  ],
  "bytecode": "0x6060604052336000806101000a81548173ffffffffffffffffffffffffffffffffffffffff021916908373ffffffffffffffffffffffffffffffffffffffff160217905550613197806100536000396000f30060606040526004361061016a576000357c0100000000000000000000000000000000000000000000000000000000900463ffffffff16806304aa46471461016f57806311eb1e76146101c257806312e871d11461022d5780631edfa3071461027c5780632ddadfdf146102a5578063429b62e51461036b578063449f4d97146103bc57806347d3265c146104135780635368c8e5146104465780635c33f3291461054c5780635dc20c6a146106165780636da406cb14610692578063704b6c02146106f65780638b5ff5fd1461072f5780638da5cb5b1461076e578063937289bf146107c3578063ac5c8d1f14610914578063b2c553b214610953578063b79a13b814610aa9578063c40d39b114610abe578063cdcb102914610b1c578063d22705e614610b86578063d48ea81614610bf6578063e2bc7fdf14610c72578063eb2b8db014610cdc578063f2fde38b14610d03578063f579f88214610d3c578063f7cf67d114610ed3575b600080fd5b341561017a57600080fd5b6101c06004808035600019169060200190919080356000191690602001909190803573ffffffffffffffffffffffffffffffffffffffff16906020019091905050610fb6565b005b34156101cd57600080fd5b61020f60048080356000191690602001909190803573ffffffffffffffffffffffffffffffffffffffff169060200190919080359060200190919050506110a0565b60405180826000191660001916815260200191505060405180910390f35b341561023857600080fd5b61027a600480803560001916906020019091908035906020019082018035906020019190919290803590602001908201803590602001919091929050506110de565b005b341561028757600080fd5b61028f611273565b6040518082815260200191505060405180910390f35b34156102b057600080fd5b6102d760048080356000191690602001909190803560001916906020019091905050611279565b604051808060200185815260200184815260200183151515158152602001828103825286818151815260200191508051906020019080838360005b8381101561032d578082015181840152602081019050610312565b50505050905090810190601f16801561035a5780820380516001836020036101000a031916815260200191505b509550505050505060405180910390f35b341561037657600080fd5b6103a2600480803573ffffffffffffffffffffffffffffffffffffffff1690602001909190505061138b565b604051808215151515815260200191505060405180910390f35b34156103c757600080fd5b61041160048080359060200190820180359060200191909192908035906020019082018035906020019190919290803560ff169060200190919080359060200190919050506113ab565b005b341561041e57600080fd5b61044460048080356000191690602001909190803560ff16906020019091905050611698565b005b341561045157600080fd5b61049760048080356000191690602001909190803573ffffffffffffffffffffffffffffffffffffffff1690602001909190803560001916906020019091905050611765565b6040518080602001858152602001841515151581526020018315151515815260200182810382528681815460018160011615610100020316600290048152602001915080546001816001161561010002031660029004801561053a5780601f1061050f5761010080835404028352916020019161053a565b820191906000526020600020905b81548152906001019060200180831161051d57829003601f168201915b50509550505050505060405180910390f35b341561055757600080fd5b61057e600480803560001916906020019091908035600019169060200190919050506117c8565b60405180806020018581526020018415151515815260200183151515158152602001828103825286818151815260200191508051906020019080838360005b838110156105d85780820151818401526020810190506105bd565b50505050905090810190601f1680156106055780820380516001836020036101000a031916815260200191505b509550505050505060405180910390f35b341561062157600080fd5b61063b600480803560001916906020019091905050611924565b6040518080602001828103825283818151815260200191508051906020019060200280838360005b8381101561067e578082015181840152602081019050610663565b505050509050019250505060405180910390f35b341561069d57600080fd5b6106f46004808035600019169060200190919080359060200190820180359060200191909192908035906020019082018035906020019190919290803560ff169060200190919080359060200190919050506119a1565b005b341561070157600080fd5b61072d600480803573ffffffffffffffffffffffffffffffffffffffff16906020019091905050611c27565b005b341561073a57600080fd5b610754600480803560001916906020019091905050611d30565b604051808215151515815260200191505060405180910390f35b341561077957600080fd5b610781611d9f565b604051808273ffffffffffffffffffffffffffffffffffffffff1673ffffffffffffffffffffffffffffffffffffffff16815260200191505060405180910390f35b34156107ce57600080fd5b6107e8600480803560001916906020019091905050611dc4565b6040518080602001806020018415151515815260200183810383528681815460018160011615610100020316600290048152602001915080546001816001161561010002031660029004801561087f5780601f106108545761010080835404028352916020019161087f565b820191906000526020600020905b81548152906001019060200180831161086257829003601f168201915b50508381038252858181546001816001161561010002031660029004815260200191508054600181600116156101000203166002900480156109025780601f106108d757610100808354040283529160200191610902565b820191906000526020600020905b8154815290600101906020018083116108e557829003601f168201915b50509550505050505060405180910390f35b341561091f57600080fd5b6109356004808035906020019091905050611df9565b60405180826000191660001916815260200191505060405180910390f35b341561095e57600080fd5b610978600480803560001916906020019091905050611e1d565b60405180806020018060200189815260200188600581111561099657fe5b60ff1681526020018760048111156109aa57fe5b60ff1681526020018681526020018581526020018415151515815260200183810383528b818151815260200191508051906020019080838360005b83811015610a005780820151818401526020810190506109e5565b50505050905090810190601f168015610a2d5780820380516001836020036101000a031916815260200191505b5083810382528a818151815260200191508051906020019080838360005b83811015610a66578082015181840152602081019050610a4b565b50505050905090810190601f168015610a935780820380516001836020036101000a031916815260200191505b509a505050505050505050505060405180910390f35b3415610ab457600080fd5b610abc611ff6565b005b3415610ac957600080fd5b610b0260048080356000191690602001909190803573ffffffffffffffffffffffffffffffffffffffff1690602001909190505061205a565b604051808215151515815260200191505060405180910390f35b3415610b2757600080fd5b610b2f612089565b6040518080602001828103825283818151815260200191508051906020019060200280838360005b83811015610b72578082015181840152602081019050610b57565b505050509050019250505060405180910390f35b3415610b9157600080fd5b610bf4600480803573ffffffffffffffffffffffffffffffffffffffff1690602001909190803590602001909190803560001916906020019091908035906020019082018035906020019190919290803560001916906020019091905050612128565b005b3415610c0157600080fd5b610c1b60048080356000191690602001909190505061222e565b6040518080602001828103825283818151815260200191508051906020019060200280838360005b83811015610c5e578082015181840152602081019050610c43565b505050509050019250505060405180910390f35b3415610c7d57600080fd5b610c856122e8565b6040518080602001828103825283818151815260200191508051906020019060200280838360005b83811015610cc8578082015181840152602081019050610cad565b505050509050019250505060405180910390f35b3415610ce757600080fd5b610d0160048080356000191690602001909190505061234a565b005b3415610d0e57600080fd5b610d3a600480803573ffffffffffffffffffffffffffffffffffffffff169060200190919050506124f8565b005b3415610d4757600080fd5b610d6160048080356000191690602001909190505061264d565b6040518080602001806020018a8152602001896005811115610d7f57fe5b60ff168152602001886004811115610d9357fe5b60ff1681526020018781526020018681526020018515151515815260200184815260200183810383528c818154600181600116156101000203166002900481526020019150805460018160011615610100020316600290048015610e385780601f10610e0d57610100808354040283529160200191610e38565b820191906000526020600020905b815481529060010190602001808311610e1b57829003601f168201915b505083810382528b818154600181600116156101000203166002900481526020019150805460018160011615610100020316600290048015610ebb5780601f10610e9057610100808354040283529160200191610ebb565b820191906000526020600020905b815481529060010190602001808311610e9e57829003601f168201915b50509b50505050505050505050505060405180910390f35b3415610ede57600080fd5b610f05600480803560001916906020019091908035600019169060200190919050506126c0565b604051808060200185815260200184815260200183151515158152602001828103825286818154600181600116156101000203166002900481526020019150805460018160011615610100020316600290048015610fa45780601f10610f7957610100808354040283529160200191610fa4565b820191906000526020600020905b815481529060010190602001808311610f8757829003601f168201915b50509550505050505060405180910390f35b600160003373ffffffffffffffffffffffffffffffffffffffff1673ffffffffffffffffffffffffffffffffffffffff16815260200190815260200160002060009054906101000a900460ff16151561100e57600080fd5b6001600b6000856000191660001916815260200190815260200160002060008373ffffffffffffffffffffffffffffffffffffffff1673ffffffffffffffffffffffffffffffffffffffff1681526020019081526020016000206000846000191660001916815260200190815260200160002060020160006101000a81548160ff021916908315150217905550505050565b600a602052826000526040600020602052816000526040600020818154811015156110c757fe5b906000526020600020900160009250925050505481565b6000809054906101000a900473ffffffffffffffffffffffffffffffffffffffff1673ffffffffffffffffffffffffffffffffffffffff163373ffffffffffffffffffffffffffffffffffffffff1614151561113957600080fd5b60026000866000191660001916815260200190815260200160002060060160009054906101000a900460ff1615151561117157600080fd5b60606040519081016040528085858080601f016020809104026020016040519081016040528093929190818152602001838380828437820191505050505050815260200183838080601f016020809104026020016040519081016040528093929190818152602001838380828437820191505050505050815260200160011515815250600360008760001916600019168152602001908152602001600020600082015181600001908051906020019061122b929190613005565b506020820151816001019080519060200190611248929190613005565b5060408201518160020160006101000a81548160ff0219169083151502179055509050505050505050565b60055481565b611281613085565b60008060008060076000886000191660001916815260200190815260200160002060008760001916600019168152602001908152602001600020905080600001816001015482600201548360030160009054906101000a900460ff16838054600181600116156101000203166002900480601f0160208091040260200160405190810160405280929190818152602001828054600181600116156101000203166002900480156113725780601f1061134757610100808354040283529160200191611372565b820191906000526020600020905b81548152906001019060200180831161135557829003601f168201915b5050505050935094509450945094505092959194509250565b60016020528060005260406000206000915054906101000a900460ff1681565b6000806000809054906101000a900473ffffffffffffffffffffffffffffffffffffffff1673ffffffffffffffffffffffffffffffffffffffff163373ffffffffffffffffffffffffffffffffffffffff1614151561140957600080fd5b8787878787604051808686808284378201915050848480828437820191505082600581111561143457fe5b60ff167f0100000000000000000000000000000000000000000000000000000000000000028152600101955050505050506040518091039020915060026000836000191660001916815260200190815260200160002060060160009054906101000a900460ff161515156114a757600080fd5b6001600480548060010182816114bd9190613099565b91600052602060002090016000859091909150906000191690550390506101206040519081016040528089898080601f016020809104026020016040519081016040528093929190818152602001838380828437820191505050505050815260200187878080601f016020809104026020016040519081016040528093929190818152602001838380828437820191505050505050815260200184815260200185600581111561156957fe5b81526020016000600481111561157b57fe5b815260200160008152602001600081526020016001151581526020018281525060026000846000191660001916815260200190815260200160002060008201518160000190805190602001906115d2929190613005565b5060208201518160010190805190602001906115ef929190613005565b506040820151816002015560608201518160030160006101000a81548160ff0219169083600581111561161e57fe5b021790555060808201518160030160016101000a81548160ff0219169083600481111561164757fe5b021790555060a0820151816004015560c0820151816005015560e08201518160060160006101000a81548160ff02191690831515021790555061010082015181600701559050505050505050505050565b600160003373ffffffffffffffffffffffffffffffffffffffff1673ffffffffffffffffffffffffffffffffffffffff16815260200190815260200160002060009054906101000a900460ff1615156116f057600080fd5b60026000836000191660001916815260200190815260200160002060060160009054906101000a900460ff1615611761578060026000846000191660001916815260200190815260200160002060030160016101000a81548160ff0219169083600481111561175b57fe5b02179055505b5050565b600b602052826000526040600020602052816000526040600020602052806000526040600020600092509250505080600001908060010154908060020160009054906101000a900460ff16908060020160019054906101000a900460ff16905084565b6117d0613085565b600080600080600b6000886000191660001916815260200190815260200160002060003373ffffffffffffffffffffffffffffffffffffffff1673ffffffffffffffffffffffffffffffffffffffff1681526020019081526020016000206000876000191660001916815260200190815260200160002090508060000181600101548260020160009054906101000a900460ff168360020160019054906101000a900460ff16838054600181600116156101000203166002900480601f01602080910402602001604051908101604052809291908181526020018280546001816001161561010002031660029004801561190b5780601f106118e05761010080835404028352916020019161190b565b820191906000526020600020905b8154815290600101906020018083116118ee57829003601f168201915b5050505050935094509450945094505092959194509250565b61192c6130c5565b60066000836000191660001916815260200190815260200160002080548060200260200160405190810160405280929190818152602001828054801561199557602002820191906000526020600020905b8154600019168152602001906001019080831161197d575b50505050509050919050565b60008060009054906101000a900473ffffffffffffffffffffffffffffffffffffffff1673ffffffffffffffffffffffffffffffffffffffff163373ffffffffffffffffffffffffffffffffffffffff161415156119fe57600080fd5b60026000896000191660001916815260200190815260200160002060060160009054906101000a900460ff16151515611a3657600080fd5b600160048054806001018281611a4c9190613099565b916000526020600020900160008b9091909150906000191690550390506101206040519081016040528088888080601f016020809104026020016040519081016040528093929190818152602001838380828437820191505050505050815260200186868080601f0160208091040260200160405190810160405280939291908181526020018383808284378201915050505050508152602001838152602001846005811115611af857fe5b815260200160006004811115611b0a57fe5b8152602001600081526020016000815260200160011515815260200182815250600260008a600019166000191681526020019081526020016000206000820151816000019080519060200190611b61929190613005565b506020820151816001019080519060200190611b7e929190613005565b506040820151816002015560608201518160030160006101000a81548160ff02191690836005811115611bad57fe5b021790555060808201518160030160016101000a81548160ff02191690836004811115611bd657fe5b021790555060a0820151816004015560c0820151816005015560e08201518160060160006101000a81548160ff02191690831515021790555061010082015181600701559050505050505050505050565b6000809054906101000a900473ffffffffffffffffffffffffffffffffffffffff1673ffffffffffffffffffffffffffffffffffffffff163373ffffffffffffffffffffffffffffffffffffffff16141515611c8257600080fd5b600160008273ffffffffffffffffffffffffffffffffffffffff1673ffffffffffffffffffffffffffffffffffffffff16815260200190815260200160002060009054906101000a900460ff161515611d2d5760018060008373ffffffffffffffffffffffffffffffffffffffff1673ffffffffffffffffffffffffffffffffffffffff16815260200190815260200160002060006101000a81548160ff0219169083151502179055505b50565b600060096000836000191660001916815260200190815260200160002060003373ffffffffffffffffffffffffffffffffffffffff1673ffffffffffffffffffffffffffffffffffffffff16815260200190815260200160002060009054906101000a900460ff169050919050565b6000809054906101000a900473ffffffffffffffffffffffffffffffffffffffff1681565b6003602052806000526040600020600091509050806000019080600101908060020160009054906101000a900460ff16905083565b600481815481101515611e0857fe5b90600052602060002090016000915090505481565b611e25613085565b611e2d613085565b6000806000806000806000600260008b600019166000191681526020019081526020016000209050806000018160010182600201548360030160009054906101000a900460ff168460030160019054906101000a900460ff16856004015486600501548760060160009054906101000a900460ff16878054600181600116156101000203166002900480601f016020809104026020016040519081016040528092919081815260200182805460018160011615610100020316600290048015611f375780601f10611f0c57610100808354040283529160200191611f37565b820191906000526020600020905b815481529060010190602001808311611f1a57829003601f168201915b50505050509750868054600181600116156101000203166002900480601f016020809104026020016040519081016040528092919081815260200182805460018160011615610100020316600290048015611fd35780601f10611fa857610100808354040283529160200191611fd3565b820191906000526020600020905b815481529060010190602001808311611fb657829003601f168201915b505050505096509850985098509850985098509850985050919395975091939597565b6000809054906101000a900473ffffffffffffffffffffffffffffffffffffffff1673ffffffffffffffffffffffffffffffffffffffff163373ffffffffffffffffffffffffffffffffffffffff1614151561205157600080fd5b42600581905550565b60096020528160005260406000206020528060005260406000206000915091509054906101000a900460ff1681565b6120916130c5565b600860003373ffffffffffffffffffffffffffffffffffffffff1673ffffffffffffffffffffffffffffffffffffffff16815260200190815260200160002080548060200260200160405190810160405280929190818152602001828054801561211e57602002820191906000526020600020905b81546000191681526020019060010190808311612106575b5050505050905090565b600160003373ffffffffffffffffffffffffffffffffffffffff1673ffffffffffffffffffffffffffffffffffffffff16815260200190815260200160002060009054906101000a900460ff16151561218057600080fd5b61218a8482612709565b6121c8848285858080601f016020809104026020016040519081016040528093929190818152602001838380828437820191505050505050886127a1565b6121d286856129f2565b6121dc8685612acf565b6121e7868583612bb1565b61222686858386868080601f01602080910402602001604051908101604052809392919081815260200183838082843782019150505050505089612cc4565b505050505050565b6122366130c5565b600a6000836000191660001916815260200190815260200160002060003373ffffffffffffffffffffffffffffffffffffffff1673ffffffffffffffffffffffffffffffffffffffff1681526020019081526020016000208054806020026020016040519081016040528092919081815260200182805480156122dc57602002820191906000526020600020905b815460001916815260200190600101908083116122c4575b50505050509050919050565b6122f06130c5565b600480548060200260200160405190810160405280929190818152602001828054801561234057602002820191906000526020600020905b81546000191681526020019060010190808311612328575b5050505050905090565b60008060009054906101000a900473ffffffffffffffffffffffffffffffffffffffff1673ffffffffffffffffffffffffffffffffffffffff163373ffffffffffffffffffffffffffffffffffffffff161415156123a757600080fd5b60026000836000191660001916815260200190815260200160002060060160009054906101000a900460ff1615156123de57600080fd5b600060048111156123eb57fe5b60026000846000191660001916815260200190815260200160002060030160019054906101000a900460ff16600481111561242257fe5b14151561242e57600080fd5b6002600083600019166000191681526020019081526020016000206007015490506002600083600019166000191681526020019081526020016000206000808201600061247b91906130d9565b60018201600061248b91906130d9565b60028201600090556003820160006101000a81549060ff02191690556003820160016101000a81549060ff0219169055600482016000905560058201600090556006820160006101000a81549060ff0219169055600782016000905550506124f4600482612f5a565b5050565b6000809054906101000a900473ffffffffffffffffffffffffffffffffffffffff1673ffffffffffffffffffffffffffffffffffffffff163373ffffffffffffffffffffffffffffffffffffffff1614151561255357600080fd5b600073ffffffffffffffffffffffffffffffffffffffff168173ffffffffffffffffffffffffffffffffffffffff161415151561258f57600080fd5b8073ffffffffffffffffffffffffffffffffffffffff166000809054906101000a900473ffffffffffffffffffffffffffffffffffffffff1673ffffffffffffffffffffffffffffffffffffffff167f8be0079c531659141344cd1fd0a4f28419497f9722a3daafe3b4186f6b6457e060405160405180910390a3806000806101000a81548173ffffffffffffffffffffffffffffffffffffffff021916908373ffffffffffffffffffffffffffffffffffffffff16021790555050565b6002602052806000526040600020600091509050806000019080600101908060020154908060030160009054906101000a900460ff16908060030160019054906101000a900460ff16908060040154908060050154908060060160009054906101000a900460ff16908060070154905089565b60076020528160005260406000206020528060005260406000206000915091505080600001908060010154908060020154908060030160009054906101000a900460ff16905084565b6007600083600019166000191681526020019081526020016000206000826000191660001916815260200190815260200160002060030160009054906101000a900460ff16151561279d5760066000836000191660001916815260200190815260200160002080548060010182816127819190613099565b9160005260206000209001600083909190915090600019169055505b5050565b6007600085600019166000191681526020019081526020016000206000846000191660001916815260200190815260200160002060030160009054906101000a900460ff16156128bc57612835816007600087600019166000191681526020019081526020016000206000866000191660001916815260200190815260200160002060010154612fe790919063ffffffff16565b6007600086600019166000191681526020019081526020016000206000856000191660001916815260200190815260200160002060010181905550600760008560001916600019168152602001908152602001600020600084600019166000191681526020019081526020016000206002016000815480929190600101919050555061296b565b6080604051908101604052808381526020018281526020016001815260200160011515815250600760008660001916600019168152602001908152602001600020600085600019166000191681526020019081526020016000206000820151816000019080519060200190612932929190613005565b50602082015181600101556040820151816002015560608201518160030160006101000a81548160ff0219169083151502179055509050505b61299c8160026000876000191660001916815260200190815260200160002060040154612fe790919063ffffffff16565b600260008660001916600019168152602001908152602001600020600401819055506002600085600019166000191681526020019081526020016000206005016000815480929190600101919050555050505050565b60096000826000191660001916815260200190815260200160002060008373ffffffffffffffffffffffffffffffffffffffff1673ffffffffffffffffffffffffffffffffffffffff16815260200190815260200160002060009054906101000a900460ff161515612acb57600860008373ffffffffffffffffffffffffffffffffffffffff1673ffffffffffffffffffffffffffffffffffffffff1681526020019081526020016000208054806001018281612aaf9190613099565b9160005260206000209001600083909190915090600019169055505b5050565b60096000826000191660001916815260200190815260200160002060008373ffffffffffffffffffffffffffffffffffffffff1673ffffffffffffffffffffffffffffffffffffffff16815260200190815260200160002060009054906101000a900460ff161515612bad57600160096000836000191660001916815260200190815260200160002060008473ffffffffffffffffffffffffffffffffffffffff1673ffffffffffffffffffffffffffffffffffffffff16815260200190815260200160002060006101000a81548160ff0219169083151502179055505b5050565b600b6000836000191660001916815260200190815260200160002060008473ffffffffffffffffffffffffffffffffffffffff1673ffffffffffffffffffffffffffffffffffffffff1681526020019081526020016000206000826000191660001916815260200190815260200160002060020160019054906101000a900460ff161515612cbf57600a6000836000191660001916815260200190815260200160002060008473ffffffffffffffffffffffffffffffffffffffff1673ffffffffffffffffffffffffffffffffffffffff1681526020019081526020016000208054806001018281612ca39190613099565b9160005260206000209001600083909190915090600019169055505b505050565b600b6000856000191660001916815260200190815260200160002060008673ffffffffffffffffffffffffffffffffffffffff1673ffffffffffffffffffffffffffffffffffffffff1681526020019081526020016000206000846000191660001916815260200190815260200160002060020160019054906101000a900460ff1615612e4f57612dd281600b6000876000191660001916815260200190815260200160002060008873ffffffffffffffffffffffffffffffffffffffff1673ffffffffffffffffffffffffffffffffffffffff1681526020019081526020016000206000866000191660001916815260200190815260200160002060010154612fe790919063ffffffff16565b600b6000866000191660001916815260200190815260200160002060008773ffffffffffffffffffffffffffffffffffffffff1673ffffffffffffffffffffffffffffffffffffffff1681526020019081526020016000206000856000191660001916815260200190815260200160002060010181905550612f53565b60806040519081016040528083815260200182815260200160001515815260200160011515815250600b6000866000191660001916815260200190815260200160002060008773ffffffffffffffffffffffffffffffffffffffff1673ffffffffffffffffffffffffffffffffffffffff168152602001908152602001600020600085600019166000191681526020019081526020016000206000820151816000019080519060200190612f04929190613005565b506020820151816001015560408201518160020160006101000a81548160ff02191690831515021790555060608201518160020160016101000a81548160ff0219169083151502179055509050505b5050505050565b6000828054905082101515612f6e57612fe2565b8190505b6001838054905003811015612fcc578260018201815481101515612f9257fe5b9060005260206000209001548382815481101515612fac57fe5b906000526020600020900181600019169055508080600101915050612f72565b82805480919060019003612fe09190613099565b505b505050565b6000808284019050838110151515612ffb57fe5b8091505092915050565b828054600181600116156101000203166002900490600052602060002090601f016020900481019282601f1061304657805160ff1916838001178555613074565b82800160010185558215613074579182015b82811115613073578251825591602001919060010190613058565b5b5090506130819190613121565b5090565b602060405190810160405280600081525090565b8154818355818115116130c0578183600052602060002091820191016130bf9190613146565b5b505050565b602060405190810160405280600081525090565b50805460018160011615610100020316600290046000825580601f106130ff575061311e565b601f01602090049060005260206000209081019061311d9190613121565b5b50565b61314391905b8082111561313f576000816000905550600101613127565b5090565b90565b61316891905b8082111561316457600081600090555060010161314c565b5090565b905600a165627a7a723058202a46830f78f1a90c96905b64bd2b53bdccb430e8cdbb18fea7a0a18ee4cced1d0029",
  "source": "pragma solidity ^0.4.18;\nimport '../node_modules/zeppelin-solidity/contracts/ownership/Ownable.sol';\nimport '../node_modules/zeppelin-solidity/contracts/math/SafeMath.sol';\ncontract WccStorage is Ownable {\n    using SafeMath for uint256;\n    enum GameType { First_stage, Round_of_16, Quarter_finals, Semi_finals, For_third, Final }\n    enum GameStatus { Standby, Playing, Voting, Paying, End}\n    mapping(address => bool) public admins;\n    modifier onlyAdmin() {\n        require(admins[msg.sender]);\n        _;\n    }\n    function setAdmin(address admin) public onlyOwner {\n        if (!admins[admin]) {\n            admins[admin] = true;\n        }\n    }\n    struct GameInfo {\n        string p1;\n        string p2;\n        uint time;\n        GameType gameType;\n        GameStatus status;\n        uint totalValue;\n        uint totalBets;\n        bool isValued;\n        uint i;\n    }\n    struct PlayerName {\n        string p1;\n        string p2;\n        bool isValued;\n    }\n    mapping(bytes32 => GameInfo) public games;\n    mapping(bytes32 => PlayerName) public playerNames;\n    bytes32[] public gameIndexes;\n    uint public gamesUpdated;\n\n    struct ScoreTotal {\n        string score;\n        uint totalValue;\n        uint totalBets;\n        bool isValued;\n    }\n    // gameIndex => scoreIndex[]\n    mapping(bytes32 => bytes32[]) gameScoreIndexes;\n    // gameIndex => scoreIndex => scoreTotalInfo\n    mapping(bytes32 => mapping(bytes32 => ScoreTotal)) public gameScoreTotalInfos;\n    function setGame(string _p1, string _p2, GameType _gameType, uint _time) external onlyOwner {\n        bytes32 index = keccak256(_p1, _p2, _gameType);\n        require(!games[index].isValued);\n        uint i = gameIndexes.push(index) - 1;\n        games[index] = GameInfo({\n            p1: _p1,\n            p2: _p2,\n            time: _time,\n            gameType: _gameType,\n            status: GameStatus.Standby,\n            totalValue: 0,\n            totalBets: 0,\n            isValued: true,\n            i: i\n        });\n    }\n    function gamesUpdate() external onlyOwner {\n        gamesUpdated = block.timestamp;\n    }\n    function setGame(bytes32 _index, string _p1, string _p2, GameType _gameType, uint _time) external onlyOwner {\n        require(!games[_index].isValued);\n        uint i = gameIndexes.push(_index) - 1;\n        games[_index] = GameInfo({\n            p1: _p1,\n            p2: _p2,\n            time: _time,\n            gameType: _gameType,\n            status: GameStatus.Standby,\n            totalValue: 0,\n            totalBets: 0,\n            isValued: true,\n            i: i\n        });\n    }\n    function setPlayer(bytes32 _index, string _p1, string _p2) external onlyOwner {\n        require(!games[_index].isValued);\n        playerNames[_index] = PlayerName({\n            p1: _p1,\n            p2: _p2,\n            isValued: true\n        });\n    }\n    function arrayRemove(bytes32[] storage array, uint index) internal {\n        if (index >= array.length) return;\n        for (uint i = index; i<array.length-1; i++){\n            array[i] = array[i+1];\n        }\n        array.length--;\n    }\n    function removeGame(bytes32 _gameIndex) external onlyOwner {\n        require(games[_gameIndex].isValued);\n        require(games[_gameIndex].status == GameStatus.Standby);\n        uint i = games[_gameIndex].i;\n        delete games[_gameIndex];\n        arrayRemove(gameIndexes, i);\n    }\n\n    mapping(address => bytes32[]) userJoinedGameIndexes;\n    struct Score {\n        string score;\n        uint value;\n        bool paid;\n        bool isValued;\n    }\n    mapping(bytes32 => mapping(address => bool)) public joinedGames;\n    mapping(bytes32 => mapping(address => bytes32[])) public joinedGamesScoreIndexes;\n    mapping(bytes32 => mapping(address => mapping(bytes32 => Score))) public joinedGamesScoreInfo;\n\n    \n\n    function userJoin(address user, uint value, bytes32 gameIndex, string score, bytes32 scoreIndex) external onlyAdmin {\n        // bytes32 scoreIndex = keccak256(score);\n\n        setGameScoreTotalIndex(gameIndex, scoreIndex);\n        setGameScoreTotalInfo(gameIndex, scoreIndex, score, value);\n        setUserJoinedGameIndexes(user, gameIndex);\n        setJoinedGame(user, gameIndex);\n        setJoinedGameScoreIndex(user, gameIndex, scoreIndex);\n        setJoinedGameScoreInfo(user, gameIndex, scoreIndex, score, value);\n    }\n\n    function setGameScoreTotalIndex(bytes32 _gameIndex, bytes32 _scoreIndex) private {\n        if (!gameScoreTotalInfos[_gameIndex][_scoreIndex].isValued) {\n            gameScoreIndexes[_gameIndex].push(_scoreIndex);\n        }\n    }\n    function setGameScoreTotalInfo(bytes32 _gameIndex, bytes32 _scoreIndex, string _score, uint _value) private {\n        if (gameScoreTotalInfos[_gameIndex][_scoreIndex].isValued) {\n            gameScoreTotalInfos[_gameIndex][_scoreIndex].totalValue = gameScoreTotalInfos[_gameIndex][_scoreIndex].totalValue.add(_value);\n            gameScoreTotalInfos[_gameIndex][_scoreIndex].totalBets ++;\n        } else {\n            gameScoreTotalInfos[_gameIndex][_scoreIndex] = ScoreTotal({\n                score: _score,\n                totalValue: _value,\n                totalBets: 1,\n                isValued: true\n            });\n        }\n        games[_gameIndex].totalValue = games[_gameIndex].totalValue.add(_value);\n        games[_gameIndex].totalBets ++; \n    }\n    function setUserJoinedGameIndexes(address _user, bytes32 _gameIndex) private {\n        if(!joinedGames[_gameIndex][_user]) {\n            userJoinedGameIndexes[_user].push(_gameIndex);\n        }\n    }\n    function setJoinedGame(address _user, bytes32 _gameIndex) private {\n        if(!joinedGames[_gameIndex][_user]) {\n            joinedGames[_gameIndex][_user] = true;\n        }\n    }\n    function setJoinedGameScoreIndex(address _user, bytes32 _gameIndex, bytes32 _scoreIndex) private {\n        if(!joinedGamesScoreInfo[_gameIndex][_user][_scoreIndex].isValued) {\n            joinedGamesScoreIndexes[_gameIndex][_user].push(_scoreIndex);\n        }\n    }\n    function setJoinedGameScoreInfo(address _user, bytes32 _gameIndex, bytes32 _scoreIndex, string _score, uint _value) internal {\n        if(joinedGamesScoreInfo[_gameIndex][_user][_scoreIndex].isValued) {\n            joinedGamesScoreInfo[_gameIndex][_user][_scoreIndex].value = joinedGamesScoreInfo[_gameIndex][_user][_scoreIndex].value.add(_value);\n        } else {\n            joinedGamesScoreInfo[_gameIndex][_user][_scoreIndex] = Score({\n                score: _score,\n                value: _value,\n                paid: false,\n                isValued: true\n            });\n        }\n    }\n    function setGameStatus(bytes32 _gameIndex, GameStatus _status) external onlyAdmin {\n        if (games[_gameIndex].isValued) {\n            games[_gameIndex].status = _status;\n        }\n    }\n    function getAllGameIndexes() public view returns(bytes32[]) {\n        return gameIndexes;\n    }\n    function getGameInfo(bytes32 _gameIndex) public view returns(string p1, string p2, uint time, GameType gameType, GameStatus status, uint totalValue, uint totalBets, bool isValued) {\n        GameInfo storage gameInfo = games[_gameIndex];\n        return (gameInfo.p1, gameInfo.p2, gameInfo.time, gameInfo.gameType, gameInfo.status, gameInfo.totalValue, gameInfo.totalBets, gameInfo.isValued);\n    }\n    function getGameScoreIndexes(bytes32 _gameIndex) public view returns(bytes32[]) {\n        return gameScoreIndexes[_gameIndex];\n    }\n    function getGameScoreTotalInfo(bytes32 _gameIndex, bytes32 _scoreIndex) public view returns(string score, uint totalValue, uint totalBets, bool isValued) {\n        ScoreTotal storage scoreTotal = gameScoreTotalInfos[_gameIndex][_scoreIndex];\n        return (scoreTotal.score, scoreTotal.totalValue, scoreTotal.totalBets, scoreTotal.isValued);\n    }\n    function getUserJoinedGameIndexes() public view returns(bytes32[]){\n        return userJoinedGameIndexes[msg.sender];\n    }\n    function isJoinedGame(bytes32 _gameIndex) public view returns(bool) {\n        return joinedGames[_gameIndex][msg.sender];\n    }\n    function getUserJoinedGameScoreIndexes(bytes32 _gameIndex) public view returns(bytes32[]) {\n        return joinedGamesScoreIndexes[_gameIndex][msg.sender];\n    }\n    function getUserJoinedGameScoreInfo(bytes32 _gameIndex, bytes32 _scoreIndex) public view returns(string score, uint value, bool paid, bool isValued) {\n        Score storage scoreInfo = joinedGamesScoreInfo[_gameIndex][msg.sender][_scoreIndex];\n        return (scoreInfo.score, scoreInfo.value, scoreInfo.paid, scoreInfo.isValued);\n    }\n    function setUserScorePaid(bytes32 _gameIndex, bytes32 _scoreIndex, address user) external onlyAdmin {\n        joinedGamesScoreInfo[_gameIndex][user][_scoreIndex].paid = true;\n    }\n}",
  "sourcePath": "/Users/Macx/huangyihong/huibaoSC/contracts/WccStorage.sol",
  "compiler": {
    "name": "solc",
    "version": "0.4.18+commit.9cf6e910.Emscripten.clang"
  },
  "schemaVersion": "1.0.1",
  "updatedAt": "2018-04-19T09:51:02.107Z"
}