{
  "contractName": "WccVoter",
  "abi": [
    {
      "constant": false,
      "inputs": [
        {
          "name": "tokenAddress",
          "type": "address"
        }
      ],
      "name": "setToken",
      "outputs": [],
      "payable": false,
      "stateMutability": "nonpayable",
      "type": "function"
    },
    {
      "constant": true,
      "inputs": [
        {
          "name": "_gameIndex",
          "type": "bytes32"
        }
      ],
      "name": "endVoteCheck",
      "outputs": [
        {
          "name": "",
          "type": "uint256"
        }
      ],
      "payable": false,
      "stateMutability": "view",
      "type": "function"
    },
    {
      "constant": false,
      "inputs": [
        {
          "name": "_gameIndex",
          "type": "bytes32"
        }
      ],
      "name": "setGameStart",
      "outputs": [],
      "payable": false,
      "stateMutability": "nonpayable",
      "type": "function"
    },
    {
      "constant": true,
      "inputs": [
        {
          "name": "",
          "type": "bytes32"
        }
      ],
      "name": "canEnd",
      "outputs": [
        {
          "name": "",
          "type": "bool"
        }
      ],
      "payable": false,
      "stateMutability": "view",
      "type": "function"
    },
    {
      "constant": true,
      "inputs": [
        {
          "name": "_gameIndex",
          "type": "bytes32"
        }
      ],
      "name": "canEndCheck",
      "outputs": [
        {
          "name": "",
          "type": "uint256"
        }
      ],
      "payable": false,
      "stateMutability": "view",
      "type": "function"
    },
    {
      "constant": false,
      "inputs": [],
      "name": "emergencyStop",
      "outputs": [],
      "payable": false,
      "stateMutability": "nonpayable",
      "type": "function"
    },
    {
      "constant": true,
      "inputs": [],
      "name": "stopped",
      "outputs": [
        {
          "name": "",
          "type": "bool"
        }
      ],
      "payable": false,
      "stateMutability": "view",
      "type": "function"
    },
    {
      "constant": false,
      "inputs": [
        {
          "name": "csAddress",
          "type": "address"
        }
      ],
      "name": "setWccs",
      "outputs": [],
      "payable": false,
      "stateMutability": "nonpayable",
      "type": "function"
    },
    {
      "constant": false,
      "inputs": [
        {
          "name": "_gameIndex",
          "type": "bytes32"
        },
        {
          "name": "_result",
          "type": "string"
        }
      ],
      "name": "changeResult",
      "outputs": [],
      "payable": false,
      "stateMutability": "nonpayable",
      "type": "function"
    },
    {
      "constant": true,
      "inputs": [
        {
          "name": "",
          "type": "address"
        }
      ],
      "name": "judges",
      "outputs": [
        {
          "name": "",
          "type": "bool"
        }
      ],
      "payable": false,
      "stateMutability": "view",
      "type": "function"
    },
    {
      "constant": false,
      "inputs": [
        {
          "name": "vsAddress",
          "type": "address"
        }
      ],
      "name": "setVs",
      "outputs": [],
      "payable": false,
      "stateMutability": "nonpayable",
      "type": "function"
    },
    {
      "constant": true,
      "inputs": [],
      "name": "owner",
      "outputs": [
        {
          "name": "",
          "type": "address"
        }
      ],
      "payable": false,
      "stateMutability": "view",
      "type": "function"
    },
    {
      "constant": false,
      "inputs": [
        {
          "name": "_gameIndex",
          "type": "bytes32"
        },
        {
          "name": "yesOrNo",
          "type": "bool"
        }
      ],
      "name": "vote",
      "outputs": [],
      "payable": false,
      "stateMutability": "nonpayable",
      "type": "function"
    },
    {
      "constant": false,
      "inputs": [
        {
          "name": "judge",
          "type": "address"
        }
      ],
      "name": "setJudge",
      "outputs": [],
      "payable": false,
      "stateMutability": "nonpayable",
      "type": "function"
    },
    {
      "constant": true,
      "inputs": [],
      "name": "testOK",
      "outputs": [
        {
          "name": "",
          "type": "uint256"
        }
      ],
      "payable": false,
      "stateMutability": "view",
      "type": "function"
    },
    {
      "constant": false,
      "inputs": [
        {
          "name": "_gameIndex",
          "type": "bytes32"
        }
      ],
      "name": "endVote",
      "outputs": [],
      "payable": false,
      "stateMutability": "nonpayable",
      "type": "function"
    },
    {
      "constant": true,
      "inputs": [
        {
          "name": "_gameIndex",
          "type": "bytes32"
        }
      ],
      "name": "voteCheck",
      "outputs": [
        {
          "name": "",
          "type": "uint256"
        }
      ],
      "payable": false,
      "stateMutability": "view",
      "type": "function"
    },
    {
      "constant": true,
      "inputs": [
        {
          "name": "_gameIndex",
          "type": "bytes32"
        }
      ],
      "name": "startVoteCheck",
      "outputs": [
        {
          "name": "",
          "type": "uint256"
        }
      ],
      "payable": false,
      "stateMutability": "view",
      "type": "function"
    },
    {
      "constant": false,
      "inputs": [],
      "name": "start",
      "outputs": [],
      "payable": false,
      "stateMutability": "nonpayable",
      "type": "function"
    },
    {
      "constant": false,
      "inputs": [
        {
          "name": "_gameIndex",
          "type": "bytes32"
        },
        {
          "name": "_result",
          "type": "string"
        }
      ],
      "name": "startVote",
      "outputs": [],
      "payable": false,
      "stateMutability": "nonpayable",
      "type": "function"
    },
    {
      "constant": false,
      "inputs": [
        {
          "name": "_gameIndex",
          "type": "bytes32"
        }
      ],
      "name": "setCanEnd",
      "outputs": [],
      "payable": false,
      "stateMutability": "nonpayable",
      "type": "function"
    },
    {
      "constant": true,
      "inputs": [
        {
          "name": "user",
          "type": "address"
        }
      ],
      "name": "isJudge",
      "outputs": [
        {
          "name": "",
          "type": "bool"
        }
      ],
      "payable": false,
      "stateMutability": "view",
      "type": "function"
    },
    {
      "constant": false,
      "inputs": [
        {
          "name": "newOwner",
          "type": "address"
        }
      ],
      "name": "transferOwnership",
      "outputs": [],
      "payable": false,
      "stateMutability": "nonpayable",
      "type": "function"
    },
    {
      "inputs": [
        {
          "name": "wccsAddress",
          "type": "address"
        },
        {
          "name": "vsAddress",
          "type": "address"
        },
        {
          "name": "tokenAddress",
          "type": "address"
        }
      ],
      "payable": false,
      "stateMutability": "nonpayable",
      "type": "constructor"
    },
    {
      "anonymous": false,
      "inputs": [
        {
          "indexed": false,
          "name": "_gameIndex",
          "type": "bytes32"
        },
        {
          "indexed": false,
          "name": "_result",
          "type": "string"
        }
      ],
      "name": "StartVote",
      "type": "event"
    },
    {
      "anonymous": false,
      "inputs": [
        {
          "indexed": false,
          "name": "_gameIndex",
          "type": "bytes32"
        },
        {
          "indexed": false,
          "name": "_result",
          "type": "string"
        }
      ],
      "name": "ChangeVote",
      "type": "event"
    },
    {
      "anonymous": false,
      "inputs": [
        {
          "indexed": false,
          "name": "_gameIndex",
          "type": "bytes32"
        },
        {
          "indexed": false,
          "name": "yesOrNo",
          "type": "bool"
        },
        {
          "indexed": false,
          "name": "user",
          "type": "address"
        }
      ],
      "name": "UserVote",
      "type": "event"
    },
    {
      "anonymous": false,
      "inputs": [
        {
          "indexed": false,
          "name": "_gameIndex",
          "type": "bytes32"
        }
      ],
      "name": "EndVote",
      "type": "event"
    },
    {
      "anonymous": false,
      "inputs": [
        {
          "indexed": true,
          "name": "previousOwner",
          "type": "address"
        },
        {
          "indexed": true,
          "name": "newOwner",
          "type": "address"
        }
      ],
      "name": "OwnershipTransferred",
      "type": "event"
    }
  ],
  "bytecode": "0x6060604052341561000f57600080fd5b60405160608061246e8339810160405280805190602001909190805190602001909190805190602001909190505033336000806101000a81548173ffffffffffffffffffffffffffffffffffffffff021916908373ffffffffffffffffffffffffffffffffffffffff16021790555080600160006101000a81548173ffffffffffffffffffffffffffffffffffffffff021916908373ffffffffffffffffffffffffffffffffffffffff1602179055506000600160146101000a81548160ff0219169083151502179055505082600260006101000a81548173ffffffffffffffffffffffffffffffffffffffff021916908373ffffffffffffffffffffffffffffffffffffffff16021790555081600360006101000a81548173ffffffffffffffffffffffffffffffffffffffff021916908373ffffffffffffffffffffffffffffffffffffffff16021790555080600460006101000a81548173ffffffffffffffffffffffffffffffffffffffff021916908373ffffffffffffffffffffffffffffffffffffffff1602179055506001600760003373ffffffffffffffffffffffffffffffffffffffff1673ffffffffffffffffffffffffffffffffffffffff16815260200190815260200160002060006101000a81548160ff021916908315150217905550505050612266806102086000396000f300606060405260043610610133576000357c0100000000000000000000000000000000000000000000000000000000900463ffffffff168063144fa6d7146101385780631919a5f3146101715780634a847247146101ac5780634e4200da146101d35780635573afc21461021257806363a599a41461024d57806375f12b21146102625780637813dbd91461028f57806381797a98146102c85780638422a2f21461030357806388b157ac146103545780638da5cb5b1461038d5780639f2ce678146103e2578063b157c5cd14610414578063b325deae1461044d578063bb12380314610476578063bd8fc8b81461049d578063be6aa9b8146104d8578063be9a655514610513578063bf4ddf5c14610528578063ca4b780a14610563578063ed896d661461058a578063f2fde38b146105db575b600080fd5b341561014357600080fd5b61016f600480803573ffffffffffffffffffffffffffffffffffffffff16906020019091905050610614565b005b341561017c57600080fd5b6101966004808035600019169060200190919050506106b3565b6040518082815260200191505060405180910390f35b34156101b757600080fd5b6101d1600480803560001916906020019091905050610952565b005b34156101de57600080fd5b6101f8600480803560001916906020019091905050610a8c565b604051808215151515815260200191505060405180910390f35b341561021d57600080fd5b610237600480803560001916906020019091905050610aac565b6040518082815260200191505060405180910390f35b341561025857600080fd5b610260610cfc565b005b341561026d57600080fd5b610275610d74565b604051808215151515815260200191505060405180910390f35b341561029a57600080fd5b6102c6600480803573ffffffffffffffffffffffffffffffffffffffff16906020019091905050610d87565b005b34156102d357600080fd5b6103016004808035600019169060200190919080359060200190820180359060200191909192905050610e26565b005b341561030e57600080fd5b61033a600480803573ffffffffffffffffffffffffffffffffffffffff16906020019091905050610fec565b604051808215151515815260200191505060405180910390f35b341561035f57600080fd5b61038b600480803573ffffffffffffffffffffffffffffffffffffffff1690602001909190505061100c565b005b341561039857600080fd5b6103a06110ab565b604051808273ffffffffffffffffffffffffffffffffffffffff1673ffffffffffffffffffffffffffffffffffffffff16815260200191505060405180910390f35b34156103ed57600080fd5b61041260048080356000191690602001909190803515159060200190919050506110d0565b005b341561041f57600080fd5b61044b600480803573ffffffffffffffffffffffffffffffffffffffff16906020019091905050611384565b005b341561045857600080fd5b61046061148e565b6040518082815260200191505060405180910390f35b341561048157600080fd5b61049b600480803560001916906020019091905050611494565b005b34156104a857600080fd5b6104c2600480803560001916906020019091905050611698565b6040518082815260200191505060405180910390f35b34156104e357600080fd5b6104fd600480803560001916906020019091905050611b4f565b6040518082815260200191505060405180910390f35b341561051e57600080fd5b610526611c92565b005b341561053357600080fd5b6105616004808035600019169060200190919080359060200190820180359060200191909192905050611d0b565b005b341561056e57600080fd5b610588600480803560001916906020019091905050611f94565b005b341561059557600080fd5b6105c1600480803573ffffffffffffffffffffffffffffffffffffffff16906020019091905050612056565b604051808215151515815260200191505060405180910390f35b34156105e657600080fd5b610612600480803573ffffffffffffffffffffffffffffffffffffffff169060200190919050506120ac565b005b6000809054906101000a900473ffffffffffffffffffffffffffffffffffffffff1673ffffffffffffffffffffffffffffffffffffffff163373ffffffffffffffffffffffffffffffffffffffff1614151561066f57600080fd5b80600460006101000a81548173ffffffffffffffffffffffffffffffffffffffff021916908373ffffffffffffffffffffffffffffffffffffffff16021790555050565b6000806000806000600260009054906101000a900473ffffffffffffffffffffffffffffffffffffffff1673ffffffffffffffffffffffffffffffffffffffff1663f579f88287600060405161012001526040518263ffffffff167c010000000000000000000000000000000000000000000000000000000002815260040180826000191660001916815260200191505061012060405180830381600087803b151561075e57600080fd5b6102c65a03f1151561076f57600080fd5b5050506040518051906020018051906020018051906020018051906020018051906020018051906020018051906020018051906020018051905050995050509750505050508215156107c45760019450610949565b600260048111156107d157fe5b8460048111156107dd57fe5b1415156107ed5760029450610949565b60066000876000191660001916815260200190815260200160002060009054906101000a900460ff1615156108255760039450610949565b600360009054906101000a900473ffffffffffffffffffffffffffffffffffffffff1673ffffffffffffffffffffffffffffffffffffffff1663385afd8c87600060405160e001526040518263ffffffff167c010000000000000000000000000000000000000000000000000000000002815260040180826000191660001916815260200191505060e060405180830381600087803b15156108c657600080fd5b6102c65a03f115156108d757600080fd5b50505060405180519060200180519060200180519060200180519060200180519060200180519060200180519050505050509250925050610934600a610926838561220190919063ffffffff16565b61221f90919063ffffffff16565b8210156109445760049450610949565b600094505b50505050919050565b600160149054906101000a900460ff1615151561096e57600080fd5b600760003373ffffffffffffffffffffffffffffffffffffffff1673ffffffffffffffffffffffffffffffffffffffff16815260200190815260200160002060009054906101000a900460ff1615156109c657600080fd5b600260009054906101000a900473ffffffffffffffffffffffffffffffffffffffff1673ffffffffffffffffffffffffffffffffffffffff166347d3265c8260016040518363ffffffff167c0100000000000000000000000000000000000000000000000000000000028152600401808360001916600019168152602001826004811115610a5057fe5b60ff16815260200192505050600060405180830381600087803b1515610a7557600080fd5b6102c65a03f11515610a8657600080fd5b50505050565b60066020528060005260406000206000915054906101000a900460ff1681565b6000806000806000600260009054906101000a900473ffffffffffffffffffffffffffffffffffffffff1673ffffffffffffffffffffffffffffffffffffffff1663f579f88287600060405161012001526040518263ffffffff167c010000000000000000000000000000000000000000000000000000000002815260040180826000191660001916815260200191505061012060405180830381600087803b1515610b5757600080fd5b6102c65a03f11515610b6857600080fd5b505050604051805190602001805190602001805190602001805190602001805190602001805190602001805190602001805190602001805190505099505050975050505050821515610bbd5760019450610cf3565b60026004811115610bca57fe5b846004811115610bd657fe5b141515610be65760029450610cf3565b600360009054906101000a900473ffffffffffffffffffffffffffffffffffffffff1673ffffffffffffffffffffffffffffffffffffffff1663385afd8c87600060405160e001526040518263ffffffff167c010000000000000000000000000000000000000000000000000000000002815260040180826000191660001916815260200191505060e060405180830381600087803b1515610c8757600080fd5b6102c65a03f11515610c9857600080fd5b505050604051805190602001805190602001805190602001805190602001805190602001805190602001805190509650965050505050508115610cde5760039450610cf3565b801515610cee5760049450610cf3565b600094505b50505050919050565b600160009054906101000a900473ffffffffffffffffffffffffffffffffffffffff1673ffffffffffffffffffffffffffffffffffffffff163373ffffffffffffffffffffffffffffffffffffffff16141515610d5857600080fd5b60018060146101000a81548160ff021916908315150217905550565b600160149054906101000a900460ff1681565b6000809054906101000a900473ffffffffffffffffffffffffffffffffffffffff1673ffffffffffffffffffffffffffffffffffffffff163373ffffffffffffffffffffffffffffffffffffffff16141515610de257600080fd5b80600260006101000a81548173ffffffffffffffffffffffffffffffffffffffff021916908373ffffffffffffffffffffffffffffffffffffffff16021790555050565b600160149054906101000a900460ff16151515610e4257600080fd5b600760003373ffffffffffffffffffffffffffffffffffffffff1673ffffffffffffffffffffffffffffffffffffffff16815260200190815260200160002060009054906101000a900460ff161515610e9a57600080fd5b6000610ea584611b4f565b141515610eb157600080fd5b600360009054906101000a900473ffffffffffffffffffffffffffffffffffffffff1673ffffffffffffffffffffffffffffffffffffffff16634824420c8484846040518463ffffffff167c01000000000000000000000000000000000000000000000000000000000281526004018084600019166000191681526020018060200182810382528484828181526020019250808284378201915050945050505050600060405180830381600087803b1515610f6b57600080fd5b6102c65a03f11515610f7c57600080fd5b505050436005819055507f758e2eea4350ebda0867814593fa9eaaf6c7d3235c67073a3f00ebab22bfc2d0838383604051808460001916600019168152602001806020018281038252848482818152602001925080828437820191505094505050505060405180910390a1505050565b60076020528060005260406000206000915054906101000a900460ff1681565b6000809054906101000a900473ffffffffffffffffffffffffffffffffffffffff1673ffffffffffffffffffffffffffffffffffffffff163373ffffffffffffffffffffffffffffffffffffffff1614151561106757600080fd5b80600360006101000a81548173ffffffffffffffffffffffffffffffffffffffff021916908373ffffffffffffffffffffffffffffffffffffffff16021790555050565b6000809054906101000a900473ffffffffffffffffffffffffffffffffffffffff1681565b600160149054906101000a900460ff161515156110ec57600080fd5b60006110f783611698565b14151561110357600080fd5b600360009054906101000a900473ffffffffffffffffffffffffffffffffffffffff1673ffffffffffffffffffffffffffffffffffffffff1663df5283d5838333600460009054906101000a900473ffffffffffffffffffffffffffffffffffffffff1673ffffffffffffffffffffffffffffffffffffffff166370a08231336000604051602001526040518263ffffffff167c0100000000000000000000000000000000000000000000000000000000028152600401808273ffffffffffffffffffffffffffffffffffffffff1673ffffffffffffffffffffffffffffffffffffffff168152602001915050602060405180830381600087803b151561120957600080fd5b6102c65a03f1151561121a57600080fd5b505050604051805190506040518563ffffffff167c0100000000000000000000000000000000000000000000000000000000028152600401808560001916600019168152602001841515151581526020018373ffffffffffffffffffffffffffffffffffffffff1673ffffffffffffffffffffffffffffffffffffffff168152602001828152602001945050505050600060405180830381600087803b15156112c257600080fd5b6102c65a03f115156112d357600080fd5b50505060006112e1836106b3565b1480156112eb5750805b156112fa576112f982611494565b5b436005819055507f30e30b3927df689f79aaa46d4a2ac57b407681bf6515c2ccfe401ee11b42a0ae828233604051808460001916600019168152602001831515151581526020018273ffffffffffffffffffffffffffffffffffffffff1673ffffffffffffffffffffffffffffffffffffffff168152602001935050505060405180910390a15050565b6000809054906101000a900473ffffffffffffffffffffffffffffffffffffffff1673ffffffffffffffffffffffffffffffffffffffff163373ffffffffffffffffffffffffffffffffffffffff161415156113df57600080fd5b600760008273ffffffffffffffffffffffffffffffffffffffff1673ffffffffffffffffffffffffffffffffffffffff16815260200190815260200160002060009054906101000a900460ff16151561148b576001600760008373ffffffffffffffffffffffffffffffffffffffff1673ffffffffffffffffffffffffffffffffffffffff16815260200190815260200160002060006101000a81548160ff0219169083151502179055505b50565b60055481565b600160149054906101000a900460ff161515156114b057600080fd5b60006114bb826106b3565b1415156114c757600080fd5b600260009054906101000a900473ffffffffffffffffffffffffffffffffffffffff1673ffffffffffffffffffffffffffffffffffffffff166347d3265c8260036040518363ffffffff167c010000000000000000000000000000000000000000000000000000000002815260040180836000191660001916815260200182600481111561155157fe5b60ff16815260200192505050600060405180830381600087803b151561157657600080fd5b6102c65a03f1151561158757600080fd5b505050600360009054906101000a900473ffffffffffffffffffffffffffffffffffffffff1673ffffffffffffffffffffffffffffffffffffffff16633f21eefd826001806040518463ffffffff167c010000000000000000000000000000000000000000000000000000000002815260040180846000191660001916815260200183151515158152602001821515151581526020019350505050600060405180830381600087803b151561163b57600080fd5b6102c65a03f1151561164c57600080fd5b505050436005819055507fe9e6dbf89d1d699e9b3f4480a8d9ce6cb0048776d5b003d83ee459e4c85046928160405180826000191660001916815260200191505060405180910390a150565b600080600080600080600260009054906101000a900473ffffffffffffffffffffffffffffffffffffffff1673ffffffffffffffffffffffffffffffffffffffff1663f579f88288600060405161012001526040518263ffffffff167c010000000000000000000000000000000000000000000000000000000002815260040180826000191660001916815260200191505061012060405180830381600087803b151561174457600080fd5b6102c65a03f1151561175557600080fd5b50505060405180519060200180519060200180519060200180519060200180519060200180519060200180519060200180519060200180519050509a5050509850505050508315156117aa5760019550611b45565b600260048111156117b757fe5b8560048111156117c357fe5b1415156117d35760029550611b45565b600360009054906101000a900473ffffffffffffffffffffffffffffffffffffffff1673ffffffffffffffffffffffffffffffffffffffff1663385afd8c88600060405160e001526040518263ffffffff167c010000000000000000000000000000000000000000000000000000000002815260040180826000191660001916815260200191505060e060405180830381600087803b151561187457600080fd5b6102c65a03f1151561188557600080fd5b5050506040518051906020018051906020018051906020018051906020018051906020018051906020018051905097509750505050505082156118cb5760039550611b45565b8115156118db5760049550611b45565b600360009054906101000a900473ffffffffffffffffffffffffffffffffffffffff1673ffffffffffffffffffffffffffffffffffffffff166382b2fa7e88336000604051608001526040518363ffffffff167c01000000000000000000000000000000000000000000000000000000000281526004018083600019166000191681526020018273ffffffffffffffffffffffffffffffffffffffff1673ffffffffffffffffffffffffffffffffffffffff16815260200192505050608060405180830381600087803b15156119b057600080fd5b6102c65a03f115156119c157600080fd5b50505060405180519060200180519060200180519060200180519050935050505080156119f15760059550611b45565b6000600460009054906101000a900473ffffffffffffffffffffffffffffffffffffffff1673ffffffffffffffffffffffffffffffffffffffff166370a08231336000604051602001526040518263ffffffff167c0100000000000000000000000000000000000000000000000000000000028152600401808273ffffffffffffffffffffffffffffffffffffffff1673ffffffffffffffffffffffffffffffffffffffff168152602001915050602060405180830381600087803b1515611ab857600080fd5b6102c65a03f11515611ac957600080fd5b505050604051805190501415611ae25760069550611b45565b6000809054906101000a900473ffffffffffffffffffffffffffffffffffffffff1673ffffffffffffffffffffffffffffffffffffffff163373ffffffffffffffffffffffffffffffffffffffff161415611b405760079550611b45565b600095505b5050505050919050565b6000806000600260009054906101000a900473ffffffffffffffffffffffffffffffffffffffff1673ffffffffffffffffffffffffffffffffffffffff1663f579f88285600060405161012001526040518263ffffffff167c010000000000000000000000000000000000000000000000000000000002815260040180826000191660001916815260200191505061012060405180830381600087803b1515611bf757600080fd5b6102c65a03f11515611c0857600080fd5b505050604051805190602001805190602001805190602001805190602001805190602001805190602001805190602001805190602001805190505097505050955050505050801515611c5d5760019250611c8b565b60016004811115611c6a57fe5b826004811115611c7657fe5b141515611c865760029250611c8b565b600092505b5050919050565b600160009054906101000a900473ffffffffffffffffffffffffffffffffffffffff1673ffffffffffffffffffffffffffffffffffffffff163373ffffffffffffffffffffffffffffffffffffffff16141515611cee57600080fd5b6000600160146101000a81548160ff021916908315150217905550565b600160149054906101000a900460ff16151515611d2757600080fd5b600760003373ffffffffffffffffffffffffffffffffffffffff1673ffffffffffffffffffffffffffffffffffffffff16815260200190815260200160002060009054906101000a900460ff161515611d7f57600080fd5b6000611d8a84611b4f565b141515611d9657600080fd5b600260009054906101000a900473ffffffffffffffffffffffffffffffffffffffff1673ffffffffffffffffffffffffffffffffffffffff166347d3265c8460026040518363ffffffff167c0100000000000000000000000000000000000000000000000000000000028152600401808360001916600019168152602001826004811115611e2057fe5b60ff16815260200192505050600060405180830381600087803b1515611e4557600080fd5b6102c65a03f11515611e5657600080fd5b505050600360009054906101000a900473ffffffffffffffffffffffffffffffffffffffff1673ffffffffffffffffffffffffffffffffffffffff16634824420c8484846040518463ffffffff167c01000000000000000000000000000000000000000000000000000000000281526004018084600019166000191681526020018060200182810382528484828181526020019250808284378201915050945050505050600060405180830381600087803b1515611f1357600080fd5b6102c65a03f11515611f2457600080fd5b505050436005819055507f195f0a6fcb79ef2134122485d9e816371421e5589ce5c8581ad99c2f4806ca18838383604051808460001916600019168152602001806020018281038252848482818152602001925080828437820191505094505050505060405180910390a1505050565b600160149054906101000a900460ff16151515611fb057600080fd5b600760003373ffffffffffffffffffffffffffffffffffffffff1673ffffffffffffffffffffffffffffffffffffffff16815260200190815260200160002060009054906101000a900460ff16151561200857600080fd5b600061201382610aac565b14151561201f57600080fd5b600160066000836000191660001916815260200190815260200160002060006101000a81548160ff02191690831515021790555050565b6000600760008373ffffffffffffffffffffffffffffffffffffffff1673ffffffffffffffffffffffffffffffffffffffff16815260200190815260200160002060009054906101000a900460ff169050919050565b6000809054906101000a900473ffffffffffffffffffffffffffffffffffffffff1673ffffffffffffffffffffffffffffffffffffffff163373ffffffffffffffffffffffffffffffffffffffff1614151561210757600080fd5b600073ffffffffffffffffffffffffffffffffffffffff168173ffffffffffffffffffffffffffffffffffffffff161415151561214357600080fd5b8073ffffffffffffffffffffffffffffffffffffffff166000809054906101000a900473ffffffffffffffffffffffffffffffffffffffff1673ffffffffffffffffffffffffffffffffffffffff167f8be0079c531659141344cd1fd0a4f28419497f9722a3daafe3b4186f6b6457e060405160405180910390a3806000806101000a81548173ffffffffffffffffffffffffffffffffffffffff021916908373ffffffffffffffffffffffffffffffffffffffff16021790555050565b600080828401905083811015151561221557fe5b8091505092915050565b600080828481151561222d57fe5b04905080915050929150505600a165627a7a72305820322b32dc3aaf6bd3df0effc8b3b7fe2ea80c38cec14de04b74492186bed880650029",
  "source": "pragma solidity ^0.4.18;\nimport '../node_modules/zeppelin-solidity/contracts/ownership/Ownable.sol';\nimport '../node_modules/zeppelin-solidity/contracts/math/SafeMath.sol';\nimport './WccStorage.sol';\nimport './WccVoteStorage.sol';\nimport './common/Stoppable.sol';\nimport './common/KnotToken.sol';\ncontract WccVoter is Ownable, Stoppable{\n    using SafeMath for uint256;\n    WccStorage wccs;\n    WccVoteStorage vs;\n    KnotToken token;\n    uint public testOK;\n    mapping(bytes32 => bool) public canEnd;\n    mapping(address => bool) public judges;\n    modifier onlyJudge() {\n        require(judges[msg.sender]);\n        _;\n    }\n    function setJudge(address judge) public onlyOwner {\n        if (!judges[judge]) {\n            judges[judge] = true;\n        }\n    }\n    function isJudge(address user) public view returns(bool) {\n        return judges[user];\n    }\n    function WccVoter(address wccsAddress, address vsAddress, address tokenAddress) public Stoppable(msg.sender){\n        wccs = WccStorage(wccsAddress);\n        vs = WccVoteStorage(vsAddress);\n        token = KnotToken(tokenAddress);\n        judges[msg.sender] = true;\n    }\n    function setWccs(address csAddress) external onlyOwner {\n        wccs = WccStorage(csAddress);\n    }\n    function setVs(address vsAddress) external onlyOwner {\n        vs = WccVoteStorage(vsAddress);\n    }\n    function setToken(address tokenAddress) external onlyOwner {\n        token = KnotToken(tokenAddress);\n    }\n    /// @author Bob Clampett\n    /// @notice set game status to Playing\n    /// @param _gameIndex game index  \n    function setGameStart(bytes32 _gameIndex) external stopInEmergency onlyJudge {\n        wccs.setGameStatus(_gameIndex, WccStorage.GameStatus.Playing);\n    }\n    \n    /// @author Bob Clampett\n    /// @notice judge start vote check\n    /// @param _gameIndex game index\n    /// @return 0 if check passed\n    function startVoteCheck(bytes32 _gameIndex) public view returns(uint) {\n        var (,,,,status,,,gameValued,) = wccs.games(_gameIndex);\n        if (!gameValued) {\n            return 1; //game not exist\n        }\n        if (status != WccStorage.GameStatus.Playing) {\n            return 2; //wrong status\n        }\n        return 0;\n    }\n    event StartVote(bytes32 _gameIndex, string _result);\n    /// @author Bob Clampett\n    /// @notice judge start vote\n    /// @param _gameIndex game index\n    /// @param _result vote target   \n    function startVote(bytes32 _gameIndex, string _result) external stopInEmergency onlyJudge {\n        require(startVoteCheck(_gameIndex) == 0);\n        // change game status to Voting\n        wccs.setGameStatus(_gameIndex, WccStorage.GameStatus.Voting);\n        // create new Vote info\n        vs.setVote(_gameIndex, _result);\n        testOK = block.number;\n        StartVote(_gameIndex, _result);\n    }\n    event ChangeVote(bytes32 _gameIndex, string _result);\n    /// @author Bob Clampett\n    /// @notice judge change vote target\n    /// @param _gameIndex game index\n    /// @param _result vote target \n    function changeResult(bytes32 _gameIndex, string _result) external stopInEmergency onlyJudge {\n        require(startVoteCheck(_gameIndex) == 0);\n        vs.setVote(_gameIndex, _result);\n        testOK = block.number;\n        ChangeVote(_gameIndex, _result);\n    }\n    /// @author Bob Clampett\n    /// @notice user vote check\n    /// @param _gameIndex  game index\n    /// @return 0 if check passed\n    function voteCheck(bytes32 _gameIndex) public view returns(uint) {\n        var (,,,,status,,,gameValued,) = wccs.games(_gameIndex);\n        if (!gameValued) {\n            return 1; //game not exist\n        }\n        if (status != WccStorage.GameStatus.Voting) {\n            return 2; //wrong status\n        }\n        var (,,,,ended,voteValued) = vs.voteInfos(_gameIndex);\n        if (ended) {\n            return 3; //vote ended\n        }\n        if (!voteValued) {\n            return 4; //vote not exist\n        }\n        var (,,,isValued) = vs.userVotes(_gameIndex, msg.sender);\n        if (isValued) {\n            return 5; //has voted\n        }\n        if (token.balanceOf(msg.sender) == 0) {\n            return 6; //no vote token\n        }\n        if (msg.sender == owner) {\n            return 7; //owner can not vote\n        }\n        return 0;\n    }\n    event UserVote(bytes32 _gameIndex, bool yesOrNo, address user);\n\n    /// @author Bob Clampett\n    /// @notice user vote\n    /// @param _gameIndex game index\n    /// @param yesOrNo agree or deny    \n    function vote(bytes32 _gameIndex, bool yesOrNo) external stopInEmergency {\n        require(voteCheck(_gameIndex) == 0);\n        // add vote info\n        vs.setUserVote(_gameIndex, yesOrNo, msg.sender, token.balanceOf(msg.sender));\n        // check can end vote\n        if (endVoteCheck(_gameIndex) == 0 && yesOrNo) {\n            endVote(_gameIndex);\n        }\n        testOK = block.number;\n        UserVote(_gameIndex, yesOrNo, msg.sender);\n    }\n    function canEndCheck(bytes32 _gameIndex) public view returns(uint) {\n        var (,,,,status,,,gameValued,) = wccs.games(_gameIndex);\n        if (!gameValued) {\n            return 1; //game not exist\n        }\n        if (status != WccStorage.GameStatus.Voting) {\n            return 2; //wrong status\n        }\n        var (,,,,ended,voteValued) = vs.voteInfos(_gameIndex);\n        if (ended) {\n            return 3; //vote ended\n        }\n        if (!voteValued) {\n            return 4; //vote not exist\n        }\n        return 0;\n    }\n    function setCanEnd(bytes32 _gameIndex) external stopInEmergency onlyJudge {\n        // need to add more condition\n        require(canEndCheck(_gameIndex) == 0);\n        canEnd[_gameIndex] = true;\n    }\n    function endVoteCheck(bytes32 _gameIndex) public view returns(uint) {\n        var (,,,,status,,,gameValued,) = wccs.games(_gameIndex);\n        if (!gameValued) {\n            return 1; //game not exist\n        }\n        if (status != WccStorage.GameStatus.Voting) {\n            return 2; //wrong status\n        }\n        if (!canEnd[_gameIndex]) {\n            return 3; // can not end\n        }\n        var (,yesCount,noCount,,,,) = vs.voteInfos(_gameIndex);\n        // need change in future\n        if (yesCount < yesCount.add(noCount).div(10)) {\n            return 4; // not enough yes vote\n        }\n        return 0;\n    }\n    event EndVote(bytes32 _gameIndex);\n    function endVote(bytes32 _gameIndex) public stopInEmergency {\n        require(endVoteCheck(_gameIndex) == 0);\n        // change game status to Paying\n        wccs.setGameStatus(_gameIndex, WccStorage.GameStatus.Paying);\n        vs.updateVote(_gameIndex, true, true);\n        testOK = block.number;\n        EndVote(_gameIndex);\n    }\n}",
  "sourcePath": "/Users/Macx/huangyihong/huibaoSC/contracts/WccVoter.sol",
  "compiler": {
    "name": "solc",
    "version": "0.4.18+commit.9cf6e910.Emscripten.clang"
  },
  "schemaVersion": "1.0.1",
  "updatedAt": "2018-04-19T07:12:37.648Z"
}